{
	"Rachael.sol": {
		"RachaelToken": {
			"abi": [
				{
					"inputs": [],
					"stateMutability": "nonpayable",
					"type": "constructor"
				},
				{
					"anonymous": false,
					"inputs": [
						{
							"indexed": true,
							"internalType": "address",
							"name": "owner",
							"type": "address"
						},
						{
							"indexed": true,
							"internalType": "address",
							"name": "spender",
							"type": "address"
						},
						{
							"indexed": false,
							"internalType": "uint256",
							"name": "value",
							"type": "uint256"
						}
					],
					"name": "Approval",
					"type": "event"
				},
				{
					"anonymous": false,
					"inputs": [
						{
							"indexed": false,
							"internalType": "uint256",
							"name": "value",
							"type": "uint256"
						}
					],
					"name": "Received",
					"type": "event"
				},
				{
					"anonymous": false,
					"inputs": [
						{
							"indexed": true,
							"internalType": "address",
							"name": "from",
							"type": "address"
						},
						{
							"indexed": true,
							"internalType": "address",
							"name": "to",
							"type": "address"
						},
						{
							"indexed": false,
							"internalType": "uint256",
							"name": "value",
							"type": "uint256"
						}
					],
					"name": "Transfer",
					"type": "event"
				},
				{
					"stateMutability": "payable",
					"type": "fallback"
				},
				{
					"inputs": [
						{
							"internalType": "address",
							"name": "_owner",
							"type": "address"
						},
						{
							"internalType": "address",
							"name": "_spender",
							"type": "address"
						}
					],
					"name": "allowance",
					"outputs": [
						{
							"internalType": "uint256",
							"name": "",
							"type": "uint256"
						}
					],
					"stateMutability": "view",
					"type": "function"
				},
				{
					"inputs": [
						{
							"internalType": "address",
							"name": "_spender",
							"type": "address"
						},
						{
							"internalType": "uint256",
							"name": "_amount",
							"type": "uint256"
						}
					],
					"name": "approve",
					"outputs": [
						{
							"internalType": "bool",
							"name": "",
							"type": "bool"
						}
					],
					"stateMutability": "nonpayable",
					"type": "function"
				},
				{
					"inputs": [
						{
							"internalType": "address",
							"name": "",
							"type": "address"
						}
					],
					"name": "balanceOf",
					"outputs": [
						{
							"internalType": "uint256",
							"name": "",
							"type": "uint256"
						}
					],
					"stateMutability": "view",
					"type": "function"
				},
				{
					"inputs": [],
					"name": "decimals",
					"outputs": [
						{
							"internalType": "uint256",
							"name": "",
							"type": "uint256"
						}
					],
					"stateMutability": "view",
					"type": "function"
				},
				{
					"inputs": [],
					"name": "deposit",
					"outputs": [],
					"stateMutability": "payable",
					"type": "function"
				},
				{
					"inputs": [],
					"name": "getBalance",
					"outputs": [
						{
							"internalType": "uint256",
							"name": "",
							"type": "uint256"
						}
					],
					"stateMutability": "view",
					"type": "function"
				},
				{
					"inputs": [],
					"name": "name",
					"outputs": [
						{
							"internalType": "string",
							"name": "",
							"type": "string"
						}
					],
					"stateMutability": "view",
					"type": "function"
				},
				{
					"inputs": [],
					"name": "symbol",
					"outputs": [
						{
							"internalType": "string",
							"name": "",
							"type": "string"
						}
					],
					"stateMutability": "view",
					"type": "function"
				},
				{
					"inputs": [],
					"name": "totalSupply",
					"outputs": [
						{
							"internalType": "uint256",
							"name": "",
							"type": "uint256"
						}
					],
					"stateMutability": "view",
					"type": "function"
				},
				{
					"inputs": [
						{
							"internalType": "address",
							"name": "_to",
							"type": "address"
						},
						{
							"internalType": "uint256",
							"name": "_amount",
							"type": "uint256"
						}
					],
					"name": "transfer",
					"outputs": [
						{
							"internalType": "bool",
							"name": "",
							"type": "bool"
						}
					],
					"stateMutability": "nonpayable",
					"type": "function"
				},
				{
					"inputs": [
						{
							"internalType": "address",
							"name": "_from",
							"type": "address"
						},
						{
							"internalType": "address",
							"name": "_to",
							"type": "address"
						},
						{
							"internalType": "uint256",
							"name": "_amount",
							"type": "uint256"
						}
					],
					"name": "transferFrom",
					"outputs": [
						{
							"internalType": "bool",
							"name": "",
							"type": "bool"
						}
					],
					"stateMutability": "nonpayable",
					"type": "function"
				},
				{
					"stateMutability": "payable",
					"type": "receive"
				}
			],
			"devdoc": {
				"kind": "dev",
				"methods": {},
				"stateVariables": {
					"balanceOf": {
						"details": "Returns the amount of tokens owned by `account`."
					},
					"totalSupply": {
						"details": "Returns the amount of tokens in existence."
					}
				},
				"version": 1
			},
			"evm": {
				"assembly": "    /* \"Rachael.sol\":105:1783  contract RachaelToken is IERC20{... */\n  mstore(0x40, 0x80)\n    /* \"Rachael.sol\":139:169  string public name = \"Rachael\" */\n  mload(0x40)\n  dup1\n  0x40\n  add\n  0x40\n  mstore\n  dup1\n  0x07\n  dup2\n  mstore\n  0x20\n  add\n  0x5261636861656c00000000000000000000000000000000000000000000000000\n  dup2\n  mstore\n  pop\n  0x00\n  swap1\n  dup1\n  mload\n  swap1\n  0x20\n  add\n  swap1\n  tag_1\n  swap3\n  swap2\n  swap1\n  tag_2\n  jump\t// in\ntag_1:\n  pop\n    /* \"Rachael.sol\":171:199  string public symbol = \"RCL\" */\n  mload(0x40)\n  dup1\n  0x40\n  add\n  0x40\n  mstore\n  dup1\n  0x03\n  dup2\n  mstore\n  0x20\n  add\n  0x52434c0000000000000000000000000000000000000000000000000000000000\n  dup2\n  mstore\n  pop\n  0x01\n  swap1\n  dup1\n  mload\n  swap1\n  0x20\n  add\n  swap1\n  tag_3\n  swap3\n  swap2\n  swap1\n  tag_2\n  jump\t// in\ntag_3:\n  pop\n    /* \"Rachael.sol\":224:226  18 */\n  0x12\n    /* \"Rachael.sol\":201:226  uint public decimals = 18 */\n  0x02\n  sstore\n    /* \"Rachael.sol\":283:291  decimals */\n  sload(0x02)\n    /* \"Rachael.sol\":277:279  10 */\n  0x0a\n    /* \"Rachael.sol\":277:291  10 ** decimals */\n  tag_4\n  swap2\n  swap1\n  tag_5\n  jump\t// in\ntag_4:\n    /* \"Rachael.sol\":263:273  1000000000 */\n  0x3b9aca00\n    /* \"Rachael.sol\":263:292  1000000000 * (10 ** decimals) */\n  tag_6\n  swap2\n  swap1\n  tag_7\n  jump\t// in\ntag_6:\n    /* \"Rachael.sol\":228:292  uint public override totalSupply = 1000000000 * (10 ** decimals) */\n  0x03\n  sstore\n    /* \"Rachael.sol\":295:352  constructor(){... */\n  callvalue\n  dup1\n  iszero\n  tag_8\n  jumpi\n  0x00\n  dup1\n  revert\ntag_8:\n  pop\n    /* \"Rachael.sol\":338:349  totalSupply */\n  sload(0x03)\n    /* \"Rachael.sol\":314:323  balanceOf */\n  0x04\n    /* \"Rachael.sol\":314:335  balanceOf[msg.sender] */\n  0x00\n    /* \"Rachael.sol\":324:334  msg.sender */\n  caller\n    /* \"Rachael.sol\":314:335  balanceOf[msg.sender] */\n  0xffffffffffffffffffffffffffffffffffffffff\n  and\n  0xffffffffffffffffffffffffffffffffffffffff\n  and\n  dup2\n  mstore\n  0x20\n  add\n  swap1\n  dup2\n  mstore\n  0x20\n  add\n  0x00\n  keccak256\n    /* \"Rachael.sol\":314:349  balanceOf[msg.sender] = totalSupply */\n  dup2\n  swap1\n  sstore\n  pop\n    /* \"Rachael.sol\":105:1783  contract RachaelToken is IERC20{... */\n  jump(tag_11)\ntag_2:\n  dup3\n  dup1\n  sload\n  tag_12\n  swap1\n  tag_13\n  jump\t// in\ntag_12:\n  swap1\n  0x00\n  mstore\n  keccak256(0x00, 0x20)\n  swap1\n  0x1f\n  add\n  0x20\n  swap1\n  div\n  dup2\n  add\n  swap3\n  dup3\n  tag_15\n  jumpi\n  0x00\n  dup6\n  sstore\n  jump(tag_14)\ntag_15:\n  dup3\n  0x1f\n  lt\n  tag_16\n  jumpi\n  dup1\n  mload\n  not(0xff)\n  and\n  dup4\n  dup1\n  add\n  or\n  dup6\n  sstore\n  jump(tag_14)\ntag_16:\n  dup3\n  dup1\n  add\n  0x01\n  add\n  dup6\n  sstore\n  dup3\n  iszero\n  tag_14\n  jumpi\n  swap2\n  dup3\n  add\ntag_17:\n  dup3\n  dup2\n  gt\n  iszero\n  tag_18\n  jumpi\n  dup3\n  mload\n  dup3\n  sstore\n  swap2\n  0x20\n  add\n  swap2\n  swap1\n  0x01\n  add\n  swap1\n  jump(tag_17)\ntag_18:\ntag_14:\n  pop\n  swap1\n  pop\n  tag_19\n  swap2\n  swap1\n  tag_20\n  jump\t// in\ntag_19:\n  pop\n  swap1\n  jump\t// out\ntag_20:\ntag_21:\n  dup1\n  dup3\n  gt\n  iszero\n  tag_22\n  jumpi\n  0x00\n  dup2\n  0x00\n  swap1\n  sstore\n  pop\n  0x01\n  add\n  jump(tag_21)\ntag_22:\n  pop\n  swap1\n  jump\t// out\n    /* \"#utility.yul\":7:187   */\ntag_23:\n    /* \"#utility.yul\":55:132   */\n  0x4e487b7100000000000000000000000000000000000000000000000000000000\n    /* \"#utility.yul\":52:53   */\n  0x00\n    /* \"#utility.yul\":45:133   */\n  mstore\n    /* \"#utility.yul\":152:156   */\n  0x11\n    /* \"#utility.yul\":149:150   */\n  0x04\n    /* \"#utility.yul\":142:157   */\n  mstore\n    /* \"#utility.yul\":176:180   */\n  0x24\n    /* \"#utility.yul\":173:174   */\n  0x00\n    /* \"#utility.yul\":166:181   */\n  revert\n    /* \"#utility.yul\":193:295   */\ntag_24:\n    /* \"#utility.yul\":235:243   */\n  0x00\n    /* \"#utility.yul\":282:287   */\n  dup2\n    /* \"#utility.yul\":279:280   */\n  0x01\n    /* \"#utility.yul\":275:288   */\n  shr\n    /* \"#utility.yul\":254:288   */\n  swap1\n  pop\n    /* \"#utility.yul\":193:295   */\n  swap2\n  swap1\n  pop\n  jump\t// out\n    /* \"#utility.yul\":301:1149   */\ntag_25:\n    /* \"#utility.yul\":362:367   */\n  0x00\n    /* \"#utility.yul\":369:373   */\n  dup1\n    /* \"#utility.yul\":393:399   */\n  dup3\n    /* \"#utility.yul\":384:399   */\n  swap2\n  pop\n    /* \"#utility.yul\":417:422   */\n  dup4\n    /* \"#utility.yul\":408:422   */\n  swap1\n  pop\n    /* \"#utility.yul\":431:1143   */\ntag_33:\n    /* \"#utility.yul\":452:453   */\n  0x01\n    /* \"#utility.yul\":442:450   */\n  dup6\n    /* \"#utility.yul\":439:454   */\n  gt\n    /* \"#utility.yul\":431:1143   */\n  iszero\n  tag_35\n  jumpi\n    /* \"#utility.yul\":547:551   */\n  dup1\n    /* \"#utility.yul\":542:545   */\n  dup7\n    /* \"#utility.yul\":538:552   */\n  div\n    /* \"#utility.yul\":532:536   */\n  dup2\n    /* \"#utility.yul\":529:553   */\n  gt\n    /* \"#utility.yul\":526:576   */\n  iszero\n  tag_36\n  jumpi\n    /* \"#utility.yul\":556:574   */\n  tag_37\n  tag_23\n  jump\t// in\ntag_37:\n    /* \"#utility.yul\":526:576   */\ntag_36:\n    /* \"#utility.yul\":606:607   */\n  0x01\n    /* \"#utility.yul\":596:604   */\n  dup6\n    /* \"#utility.yul\":592:608   */\n  and\n    /* \"#utility.yul\":589:1040   */\n  iszero\n  tag_38\n  jumpi\n    /* \"#utility.yul\":1021:1025   */\n  dup1\n    /* \"#utility.yul\":1014:1019   */\n  dup3\n    /* \"#utility.yul\":1010:1026   */\n  mul\n    /* \"#utility.yul\":1001:1026   */\n  swap2\n  pop\n    /* \"#utility.yul\":589:1040   */\ntag_38:\n    /* \"#utility.yul\":1071:1075   */\n  dup1\n    /* \"#utility.yul\":1065:1069   */\n  dup2\n    /* \"#utility.yul\":1061:1076   */\n  mul\n    /* \"#utility.yul\":1053:1076   */\n  swap1\n  pop\n    /* \"#utility.yul\":1101:1133   */\n  tag_39\n    /* \"#utility.yul\":1124:1132   */\n  dup6\n    /* \"#utility.yul\":1101:1133   */\n  tag_24\n  jump\t// in\ntag_39:\n    /* \"#utility.yul\":1089:1133   */\n  swap5\n  pop\n    /* \"#utility.yul\":431:1143   */\n  jump(tag_33)\ntag_35:\n    /* \"#utility.yul\":301:1149   */\n  swap5\n  pop\n  swap5\n  swap3\n  pop\n  pop\n  pop\n  jump\t// out\n    /* \"#utility.yul\":1155:2228   */\ntag_26:\n    /* \"#utility.yul\":1209:1214   */\n  0x00\n    /* \"#utility.yul\":1400:1408   */\n  dup3\n    /* \"#utility.yul\":1390:1430   */\n  tag_41\n  jumpi\n    /* \"#utility.yul\":1421:1422   */\n  0x01\n    /* \"#utility.yul\":1412:1422   */\n  swap1\n  pop\n    /* \"#utility.yul\":1423:1428   */\n  jump(tag_40)\n    /* \"#utility.yul\":1390:1430   */\ntag_41:\n    /* \"#utility.yul\":1449:1453   */\n  dup2\n    /* \"#utility.yul\":1439:1475   */\n  tag_42\n  jumpi\n    /* \"#utility.yul\":1466:1467   */\n  0x00\n    /* \"#utility.yul\":1457:1467   */\n  swap1\n  pop\n    /* \"#utility.yul\":1468:1473   */\n  jump(tag_40)\n    /* \"#utility.yul\":1439:1475   */\ntag_42:\n    /* \"#utility.yul\":1535:1539   */\n  dup2\n    /* \"#utility.yul\":1583:1584   */\n  0x01\n    /* \"#utility.yul\":1578:1605   */\n  dup2\n  eq\n  tag_44\n  jumpi\n    /* \"#utility.yul\":1619:1620   */\n  0x02\n    /* \"#utility.yul\":1614:1805   */\n  dup2\n  eq\n  tag_45\n  jumpi\n    /* \"#utility.yul\":1528:1805   */\n  jump(tag_43)\n    /* \"#utility.yul\":1578:1605   */\ntag_44:\n    /* \"#utility.yul\":1596:1597   */\n  0x01\n    /* \"#utility.yul\":1587:1597   */\n  swap2\n  pop\n    /* \"#utility.yul\":1598:1603   */\n  pop\n  jump(tag_40)\n    /* \"#utility.yul\":1614:1805   */\ntag_45:\n    /* \"#utility.yul\":1659:1662   */\n  0xff\n    /* \"#utility.yul\":1649:1657   */\n  dup5\n    /* \"#utility.yul\":1646:1663   */\n  gt\n    /* \"#utility.yul\":1643:1686   */\n  iszero\n  tag_46\n  jumpi\n    /* \"#utility.yul\":1666:1684   */\n  tag_47\n  tag_23\n  jump\t// in\ntag_47:\n    /* \"#utility.yul\":1643:1686   */\ntag_46:\n    /* \"#utility.yul\":1715:1723   */\n  dup4\n    /* \"#utility.yul\":1712:1713   */\n  0x02\n    /* \"#utility.yul\":1708:1724   */\n  exp\n    /* \"#utility.yul\":1699:1724   */\n  swap2\n  pop\n    /* \"#utility.yul\":1750:1753   */\n  dup5\n    /* \"#utility.yul\":1743:1748   */\n  dup3\n    /* \"#utility.yul\":1740:1754   */\n  gt\n    /* \"#utility.yul\":1737:1777   */\n  iszero\n  tag_48\n  jumpi\n    /* \"#utility.yul\":1757:1775   */\n  tag_49\n  tag_23\n  jump\t// in\ntag_49:\n    /* \"#utility.yul\":1737:1777   */\ntag_48:\n    /* \"#utility.yul\":1790:1795   */\n  pop\n  jump(tag_40)\n    /* \"#utility.yul\":1528:1805   */\ntag_43:\n  pop\n    /* \"#utility.yul\":1914:1916   */\n  0x20\n    /* \"#utility.yul\":1904:1912   */\n  dup4\n    /* \"#utility.yul\":1901:1917   */\n  lt\n    /* \"#utility.yul\":1895:1898   */\n  0x0133\n    /* \"#utility.yul\":1889:1893   */\n  dup4\n    /* \"#utility.yul\":1886:1899   */\n  lt\n    /* \"#utility.yul\":1882:1918   */\n  and\n    /* \"#utility.yul\":1864:1866   */\n  0x4e\n    /* \"#utility.yul\":1854:1862   */\n  dup5\n    /* \"#utility.yul\":1851:1867   */\n  lt\n    /* \"#utility.yul\":1846:1848   */\n  0x0b\n    /* \"#utility.yul\":1840:1844   */\n  dup5\n    /* \"#utility.yul\":1837:1849   */\n  lt\n    /* \"#utility.yul\":1833:1868   */\n  and\n    /* \"#utility.yul\":1817:1928   */\n  or\n    /* \"#utility.yul\":1814:2060   */\n  iszero\n  tag_50\n  jumpi\n    /* \"#utility.yul\":1970:1978   */\n  dup3\n    /* \"#utility.yul\":1964:1968   */\n  dup3\n    /* \"#utility.yul\":1960:1979   */\n  exp\n    /* \"#utility.yul\":1951:1979   */\n  swap1\n  pop\n    /* \"#utility.yul\":2005:2008   */\n  dup4\n    /* \"#utility.yul\":1998:2003   */\n  dup2\n    /* \"#utility.yul\":1995:2009   */\n  gt\n    /* \"#utility.yul\":1992:2032   */\n  iszero\n  tag_51\n  jumpi\n    /* \"#utility.yul\":2012:2030   */\n  tag_52\n  tag_23\n  jump\t// in\ntag_52:\n    /* \"#utility.yul\":1992:2032   */\ntag_51:\n    /* \"#utility.yul\":2045:2050   */\n  jump(tag_40)\n    /* \"#utility.yul\":1814:2060   */\ntag_50:\n    /* \"#utility.yul\":2085:2127   */\n  tag_53\n    /* \"#utility.yul\":2123:2126   */\n  dup5\n    /* \"#utility.yul\":2113:2121   */\n  dup5\n    /* \"#utility.yul\":2107:2111   */\n  dup5\n    /* \"#utility.yul\":2104:2105   */\n  0x01\n    /* \"#utility.yul\":2085:2127   */\n  tag_25\n  jump\t// in\ntag_53:\n    /* \"#utility.yul\":2070:2127   */\n  swap3\n  pop\n  swap1\n  pop\n    /* \"#utility.yul\":2159:2163   */\n  dup2\n    /* \"#utility.yul\":2154:2157   */\n  dup5\n    /* \"#utility.yul\":2150:2164   */\n  div\n    /* \"#utility.yul\":2143:2148   */\n  dup2\n    /* \"#utility.yul\":2140:2165   */\n  gt\n    /* \"#utility.yul\":2137:2188   */\n  iszero\n  tag_54\n  jumpi\n    /* \"#utility.yul\":2168:2186   */\n  tag_55\n  tag_23\n  jump\t// in\ntag_55:\n    /* \"#utility.yul\":2137:2188   */\ntag_54:\n    /* \"#utility.yul\":2217:2221   */\n  dup2\n    /* \"#utility.yul\":2210:2215   */\n  dup2\n    /* \"#utility.yul\":2206:2222   */\n  mul\n    /* \"#utility.yul\":2197:2222   */\n  swap1\n  pop\n    /* \"#utility.yul\":1155:2228   */\ntag_40:\n  swap4\n  swap3\n  pop\n  pop\n  pop\n  jump\t// out\n    /* \"#utility.yul\":2234:2311   */\ntag_27:\n    /* \"#utility.yul\":2271:2278   */\n  0x00\n    /* \"#utility.yul\":2300:2305   */\n  dup2\n    /* \"#utility.yul\":2289:2305   */\n  swap1\n  pop\n    /* \"#utility.yul\":2234:2311   */\n  swap2\n  swap1\n  pop\n  jump\t// out\n    /* \"#utility.yul\":2317:2602   */\ntag_5:\n    /* \"#utility.yul\":2377:2382   */\n  0x00\n    /* \"#utility.yul\":2401:2424   */\n  tag_58\n    /* \"#utility.yul\":2419:2423   */\n  dup3\n    /* \"#utility.yul\":2401:2424   */\n  tag_27\n  jump\t// in\ntag_58:\n    /* \"#utility.yul\":2393:2424   */\n  swap2\n  pop\n    /* \"#utility.yul\":2445:2472   */\n  tag_59\n    /* \"#utility.yul\":2463:2471   */\n  dup4\n    /* \"#utility.yul\":2445:2472   */\n  tag_27\n  jump\t// in\ntag_59:\n    /* \"#utility.yul\":2433:2472   */\n  swap3\n  pop\n    /* \"#utility.yul\":2491:2595   */\n  tag_60\n    /* \"#utility.yul\":2528:2594   */\n  0xffffffffffffffffffffffffffffffffffffffffffffffffffffffffffffffff\n    /* \"#utility.yul\":2518:2526   */\n  dup5\n    /* \"#utility.yul\":2512:2516   */\n  dup5\n    /* \"#utility.yul\":2491:2595   */\n  tag_26\n  jump\t// in\ntag_60:\n    /* \"#utility.yul\":2482:2595   */\n  swap1\n  pop\n    /* \"#utility.yul\":2317:2602   */\n  swap3\n  swap2\n  pop\n  pop\n  jump\t// out\n    /* \"#utility.yul\":2608:2956   */\ntag_7:\n    /* \"#utility.yul\":2648:2655   */\n  0x00\n    /* \"#utility.yul\":2671:2691   */\n  tag_62\n    /* \"#utility.yul\":2689:2690   */\n  dup3\n    /* \"#utility.yul\":2671:2691   */\n  tag_27\n  jump\t// in\ntag_62:\n    /* \"#utility.yul\":2666:2691   */\n  swap2\n  pop\n    /* \"#utility.yul\":2705:2725   */\n  tag_63\n    /* \"#utility.yul\":2723:2724   */\n  dup4\n    /* \"#utility.yul\":2705:2725   */\n  tag_27\n  jump\t// in\ntag_63:\n    /* \"#utility.yul\":2700:2725   */\n  swap3\n  pop\n    /* \"#utility.yul\":2893:2894   */\n  dup2\n    /* \"#utility.yul\":2825:2891   */\n  0xffffffffffffffffffffffffffffffffffffffffffffffffffffffffffffffff\n    /* \"#utility.yul\":2821:2895   */\n  div\n    /* \"#utility.yul\":2818:2819   */\n  dup4\n    /* \"#utility.yul\":2815:2896   */\n  gt\n    /* \"#utility.yul\":2810:2811   */\n  dup3\n    /* \"#utility.yul\":2803:2812   */\n  iszero\n    /* \"#utility.yul\":2796:2813   */\n  iszero\n    /* \"#utility.yul\":2792:2897   */\n  and\n    /* \"#utility.yul\":2789:2920   */\n  iszero\n  tag_64\n  jumpi\n    /* \"#utility.yul\":2900:2918   */\n  tag_65\n  tag_23\n  jump\t// in\ntag_65:\n    /* \"#utility.yul\":2789:2920   */\ntag_64:\n    /* \"#utility.yul\":2948:2949   */\n  dup3\n    /* \"#utility.yul\":2945:2946   */\n  dup3\n    /* \"#utility.yul\":2941:2950   */\n  mul\n    /* \"#utility.yul\":2930:2950   */\n  swap1\n  pop\n    /* \"#utility.yul\":2608:2956   */\n  swap3\n  swap2\n  pop\n  pop\n  jump\t// out\n    /* \"#utility.yul\":2962:3142   */\ntag_28:\n    /* \"#utility.yul\":3010:3087   */\n  0x4e487b7100000000000000000000000000000000000000000000000000000000\n    /* \"#utility.yul\":3007:3008   */\n  0x00\n    /* \"#utility.yul\":3000:3088   */\n  mstore\n    /* \"#utility.yul\":3107:3111   */\n  0x22\n    /* \"#utility.yul\":3104:3105   */\n  0x04\n    /* \"#utility.yul\":3097:3112   */\n  mstore\n    /* \"#utility.yul\":3131:3135   */\n  0x24\n    /* \"#utility.yul\":3128:3129   */\n  0x00\n    /* \"#utility.yul\":3121:3136   */\n  revert\n    /* \"#utility.yul\":3148:3468   */\ntag_13:\n    /* \"#utility.yul\":3192:3198   */\n  0x00\n    /* \"#utility.yul\":3229:3230   */\n  0x02\n    /* \"#utility.yul\":3223:3227   */\n  dup3\n    /* \"#utility.yul\":3219:3231   */\n  div\n    /* \"#utility.yul\":3209:3231   */\n  swap1\n  pop\n    /* \"#utility.yul\":3276:3277   */\n  0x01\n    /* \"#utility.yul\":3270:3274   */\n  dup3\n    /* \"#utility.yul\":3266:3278   */\n  and\n    /* \"#utility.yul\":3297:3315   */\n  dup1\n    /* \"#utility.yul\":3287:3368   */\n  tag_68\n  jumpi\n    /* \"#utility.yul\":3353:3357   */\n  0x7f\n    /* \"#utility.yul\":3345:3351   */\n  dup3\n    /* \"#utility.yul\":3341:3358   */\n  and\n    /* \"#utility.yul\":3331:3358   */\n  swap2\n  pop\n    /* \"#utility.yul\":3287:3368   */\ntag_68:\n    /* \"#utility.yul\":3415:3417   */\n  0x20\n    /* \"#utility.yul\":3407:3413   */\n  dup3\n    /* \"#utility.yul\":3404:3418   */\n  lt\n    /* \"#utility.yul\":3384:3402   */\n  dup2\n    /* \"#utility.yul\":3381:3419   */\n  eq\n    /* \"#utility.yul\":3378:3462   */\n  iszero\n  tag_69\n  jumpi\n    /* \"#utility.yul\":3434:3452   */\n  tag_70\n  tag_28\n  jump\t// in\ntag_70:\n    /* \"#utility.yul\":3378:3462   */\ntag_69:\n    /* \"#utility.yul\":3199:3468   */\n  pop\n    /* \"#utility.yul\":3148:3468   */\n  swap2\n  swap1\n  pop\n  jump\t// out\n    /* \"Rachael.sol\":105:1783  contract RachaelToken is IERC20{... */\ntag_11:\n  dataSize(sub_0)\n  dup1\n  dataOffset(sub_0)\n  0x00\n  codecopy\n  0x00\n  return\nstop\n\nsub_0: assembly {\n        /* \"Rachael.sol\":105:1783  contract RachaelToken is IERC20{... */\n      mstore(0x40, 0x80)\n      jumpi(tag_1, lt(calldatasize, 0x04))\n      shr(0xe0, calldataload(0x00))\n      dup1\n      0x313ce567\n      gt\n      tag_14\n      jumpi\n      dup1\n      0x313ce567\n      eq\n      tag_8\n      jumpi\n      dup1\n      0x70a08231\n      eq\n      tag_9\n      jumpi\n      dup1\n      0x95d89b41\n      eq\n      tag_10\n      jumpi\n      dup1\n      0xa9059cbb\n      eq\n      tag_11\n      jumpi\n      dup1\n      0xd0e30db0\n      eq\n      tag_12\n      jumpi\n      dup1\n      0xdd62ed3e\n      eq\n      tag_13\n      jumpi\n      jump(tag_2)\n    tag_14:\n      dup1\n      0x06fdde03\n      eq\n      tag_3\n      jumpi\n      dup1\n      0x095ea7b3\n      eq\n      tag_4\n      jumpi\n      dup1\n      0x12065fe0\n      eq\n      tag_5\n      jumpi\n      dup1\n      0x18160ddd\n      eq\n      tag_6\n      jumpi\n      dup1\n      0x23b872dd\n      eq\n      tag_7\n      jumpi\n      jump(tag_2)\n    tag_1:\n      jumpi(tag_2, calldatasize)\n        /* \"Rachael.sol\":1757:1776  Received(msg.value) */\n      0xa8142743f8f70a4c26f3691cf4ed59718381fb2f18070ec52be1f1022d855557\n        /* \"Rachael.sol\":1766:1775  msg.value */\n      callvalue\n        /* \"Rachael.sol\":1757:1776  Received(msg.value) */\n      mload(0x40)\n      tag_17\n      swap2\n      swap1\n      tag_18\n      jump\t// in\n    tag_17:\n      mload(0x40)\n      dup1\n      swap2\n      sub\n      swap1\n      log1\n        /* \"Rachael.sol\":105:1783  contract RachaelToken is IERC20{... */\n      stop\n    tag_2:\n        /* \"Rachael.sol\":1695:1714  Received(msg.value) */\n      0xa8142743f8f70a4c26f3691cf4ed59718381fb2f18070ec52be1f1022d855557\n        /* \"Rachael.sol\":1704:1713  msg.value */\n      callvalue\n        /* \"Rachael.sol\":1695:1714  Received(msg.value) */\n      mload(0x40)\n      tag_21\n      swap2\n      swap1\n      tag_18\n      jump\t// in\n    tag_21:\n      mload(0x40)\n      dup1\n      swap2\n      sub\n      swap1\n      log1\n        /* \"Rachael.sol\":105:1783  contract RachaelToken is IERC20{... */\n      stop\n        /* \"Rachael.sol\":139:169  string public name = \"Rachael\" */\n    tag_3:\n      callvalue\n      dup1\n      iszero\n      tag_22\n      jumpi\n      0x00\n      dup1\n      revert\n    tag_22:\n      pop\n      tag_23\n      tag_24\n      jump\t// in\n    tag_23:\n      mload(0x40)\n      tag_25\n      swap2\n      swap1\n      tag_26\n      jump\t// in\n    tag_25:\n      mload(0x40)\n      dup1\n      swap2\n      sub\n      swap1\n      return\n        /* \"Rachael.sol\":846:1124  function approve(address _spender, uint256 _amount) public override returns(bool){... */\n    tag_4:\n      callvalue\n      dup1\n      iszero\n      tag_27\n      jumpi\n      0x00\n      dup1\n      revert\n    tag_27:\n      pop\n      tag_28\n      0x04\n      dup1\n      calldatasize\n      sub\n      dup2\n      add\n      swap1\n      tag_29\n      swap2\n      swap1\n      tag_30\n      jump\t// in\n    tag_29:\n      tag_31\n      jump\t// in\n    tag_28:\n      mload(0x40)\n      tag_32\n      swap2\n      swap1\n      tag_33\n      jump\t// in\n    tag_32:\n      mload(0x40)\n      dup1\n      swap2\n      sub\n      swap1\n      return\n        /* \"Rachael.sol\":1566:1654  function getBalance()public view returns(uint256) {... */\n    tag_5:\n      callvalue\n      dup1\n      iszero\n      tag_34\n      jumpi\n      0x00\n      dup1\n      revert\n    tag_34:\n      pop\n      tag_35\n      tag_36\n      jump\t// in\n    tag_35:\n      mload(0x40)\n      tag_37\n      swap2\n      swap1\n      tag_18\n      jump\t// in\n    tag_37:\n      mload(0x40)\n      dup1\n      swap2\n      sub\n      swap1\n      return\n        /* \"Rachael.sol\":228:292  uint public override totalSupply = 1000000000 * (10 ** decimals) */\n    tag_6:\n      callvalue\n      dup1\n      iszero\n      tag_38\n      jumpi\n      0x00\n      dup1\n      revert\n    tag_38:\n      pop\n      tag_39\n      tag_40\n      jump\t// in\n    tag_39:\n      mload(0x40)\n      tag_41\n      swap2\n      swap1\n      tag_18\n      jump\t// in\n    tag_41:\n      mload(0x40)\n      dup1\n      swap2\n      sub\n      swap1\n      return\n        /* \"Rachael.sol\":1126:1466  function transferFrom(address _from, address _to, uint256 _amount) public override returns(bool){... */\n    tag_7:\n      callvalue\n      dup1\n      iszero\n      tag_42\n      jumpi\n      0x00\n      dup1\n      revert\n    tag_42:\n      pop\n      tag_43\n      0x04\n      dup1\n      calldatasize\n      sub\n      dup2\n      add\n      swap1\n      tag_44\n      swap2\n      swap1\n      tag_45\n      jump\t// in\n    tag_44:\n      tag_46\n      jump\t// in\n    tag_43:\n      mload(0x40)\n      tag_47\n      swap2\n      swap1\n      tag_33\n      jump\t// in\n    tag_47:\n      mload(0x40)\n      dup1\n      swap2\n      sub\n      swap1\n      return\n        /* \"Rachael.sol\":201:226  uint public decimals = 18 */\n    tag_8:\n      callvalue\n      dup1\n      iszero\n      tag_48\n      jumpi\n      0x00\n      dup1\n      revert\n    tag_48:\n      pop\n      tag_49\n      tag_50\n      jump\t// in\n    tag_49:\n      mload(0x40)\n      tag_51\n      swap2\n      swap1\n      tag_18\n      jump\t// in\n    tag_51:\n      mload(0x40)\n      dup1\n      swap2\n      sub\n      swap1\n      return\n        /* \"Rachael.sol\":354:407  mapping(address => uint256) public override balanceOf */\n    tag_9:\n      callvalue\n      dup1\n      iszero\n      tag_52\n      jumpi\n      0x00\n      dup1\n      revert\n    tag_52:\n      pop\n      tag_53\n      0x04\n      dup1\n      calldatasize\n      sub\n      dup2\n      add\n      swap1\n      tag_54\n      swap2\n      swap1\n      tag_55\n      jump\t// in\n    tag_54:\n      tag_56\n      jump\t// in\n    tag_53:\n      mload(0x40)\n      tag_57\n      swap2\n      swap1\n      tag_18\n      jump\t// in\n    tag_57:\n      mload(0x40)\n      dup1\n      swap2\n      sub\n      swap1\n      return\n        /* \"Rachael.sol\":171:199  string public symbol = \"RCL\" */\n    tag_10:\n      callvalue\n      dup1\n      iszero\n      tag_58\n      jumpi\n      0x00\n      dup1\n      revert\n    tag_58:\n      pop\n      tag_59\n      tag_60\n      jump\t// in\n    tag_59:\n      mload(0x40)\n      tag_61\n      swap2\n      swap1\n      tag_26\n      jump\t// in\n    tag_61:\n      mload(0x40)\n      dup1\n      swap2\n      sub\n      swap1\n      return\n        /* \"Rachael.sol\":468:679  function transfer(address _to, uint256 _amount) public override returns(bool){... */\n    tag_11:\n      callvalue\n      dup1\n      iszero\n      tag_62\n      jumpi\n      0x00\n      dup1\n      revert\n    tag_62:\n      pop\n      tag_63\n      0x04\n      dup1\n      calldatasize\n      sub\n      dup2\n      add\n      swap1\n      tag_64\n      swap2\n      swap1\n      tag_30\n      jump\t// in\n    tag_64:\n      tag_65\n      jump\t// in\n    tag_63:\n      mload(0x40)\n      tag_66\n      swap2\n      swap1\n      tag_33\n      jump\t// in\n    tag_66:\n      mload(0x40)\n      dup1\n      swap2\n      sub\n      swap1\n      return\n        /* \"Rachael.sol\":1497:1564  function deposit() public payable {... */\n    tag_12:\n      tag_67\n      tag_68\n      jump\t// in\n    tag_67:\n      stop\n        /* \"Rachael.sol\":681:844  function allowance(address _owner, address _spender) public view override returns(uint256){... */\n    tag_13:\n      callvalue\n      dup1\n      iszero\n      tag_69\n      jumpi\n      0x00\n      dup1\n      revert\n    tag_69:\n      pop\n      tag_70\n      0x04\n      dup1\n      calldatasize\n      sub\n      dup2\n      add\n      swap1\n      tag_71\n      swap2\n      swap1\n      tag_72\n      jump\t// in\n    tag_71:\n      tag_73\n      jump\t// in\n    tag_70:\n      mload(0x40)\n      tag_74\n      swap2\n      swap1\n      tag_18\n      jump\t// in\n    tag_74:\n      mload(0x40)\n      dup1\n      swap2\n      sub\n      swap1\n      return\n        /* \"Rachael.sol\":139:169  string public name = \"Rachael\" */\n    tag_24:\n      0x00\n      dup1\n      sload\n      tag_75\n      swap1\n      tag_76\n      jump\t// in\n    tag_75:\n      dup1\n      0x1f\n      add\n      0x20\n      dup1\n      swap2\n      div\n      mul\n      0x20\n      add\n      mload(0x40)\n      swap1\n      dup2\n      add\n      0x40\n      mstore\n      dup1\n      swap3\n      swap2\n      swap1\n      dup2\n      dup2\n      mstore\n      0x20\n      add\n      dup3\n      dup1\n      sload\n      tag_77\n      swap1\n      tag_76\n      jump\t// in\n    tag_77:\n      dup1\n      iszero\n      tag_78\n      jumpi\n      dup1\n      0x1f\n      lt\n      tag_79\n      jumpi\n      0x0100\n      dup1\n      dup4\n      sload\n      div\n      mul\n      dup4\n      mstore\n      swap2\n      0x20\n      add\n      swap2\n      jump(tag_78)\n    tag_79:\n      dup3\n      add\n      swap2\n      swap1\n      0x00\n      mstore\n      keccak256(0x00, 0x20)\n      swap1\n    tag_80:\n      dup2\n      sload\n      dup2\n      mstore\n      swap1\n      0x01\n      add\n      swap1\n      0x20\n      add\n      dup1\n      dup4\n      gt\n      tag_80\n      jumpi\n      dup3\n      swap1\n      sub\n      0x1f\n      and\n      dup3\n      add\n      swap2\n    tag_78:\n      pop\n      pop\n      pop\n      pop\n      pop\n      dup2\n      jump\t// out\n        /* \"Rachael.sol\":846:1124  function approve(address _spender, uint256 _amount) public override returns(bool){... */\n    tag_31:\n        /* \"Rachael.sol\":922:926  bool */\n      0x00\n        /* \"Rachael.sol\":966:973  _amount */\n      dup2\n        /* \"Rachael.sol\":941:950  balanceOf */\n      0x04\n        /* \"Rachael.sol\":941:962  balanceOf[msg.sender] */\n      0x00\n        /* \"Rachael.sol\":951:961  msg.sender */\n      caller\n        /* \"Rachael.sol\":941:962  balanceOf[msg.sender] */\n      0xffffffffffffffffffffffffffffffffffffffff\n      and\n      0xffffffffffffffffffffffffffffffffffffffff\n      and\n      dup2\n      mstore\n      0x20\n      add\n      swap1\n      dup2\n      mstore\n      0x20\n      add\n      0x00\n      keccak256\n      sload\n        /* \"Rachael.sol\":941:973  balanceOf[msg.sender] >= _amount */\n      lt\n      iszero\n        /* \"Rachael.sol\":933:1007  require(balanceOf[msg.sender] >= _amount, \"You don't have enough balance\") */\n      tag_82\n      jumpi\n      mload(0x40)\n      0x08c379a000000000000000000000000000000000000000000000000000000000\n      dup2\n      mstore\n      0x04\n      add\n      tag_83\n      swap1\n      tag_84\n      jump\t// in\n    tag_83:\n      mload(0x40)\n      dup1\n      swap2\n      sub\n      swap1\n      revert\n    tag_82:\n        /* \"Rachael.sol\":1047:1054  _amount */\n      dup2\n        /* \"Rachael.sol\":1013:1021  approved */\n      0x05\n        /* \"Rachael.sol\":1013:1033  approved[msg.sender] */\n      0x00\n        /* \"Rachael.sol\":1022:1032  msg.sender */\n      caller\n        /* \"Rachael.sol\":1013:1033  approved[msg.sender] */\n      0xffffffffffffffffffffffffffffffffffffffff\n      and\n      0xffffffffffffffffffffffffffffffffffffffff\n      and\n      dup2\n      mstore\n      0x20\n      add\n      swap1\n      dup2\n      mstore\n      0x20\n      add\n      0x00\n      keccak256\n        /* \"Rachael.sol\":1013:1043  approved[msg.sender][_spender] */\n      0x00\n        /* \"Rachael.sol\":1034:1042  _spender */\n      dup6\n        /* \"Rachael.sol\":1013:1043  approved[msg.sender][_spender] */\n      0xffffffffffffffffffffffffffffffffffffffff\n      and\n      0xffffffffffffffffffffffffffffffffffffffff\n      and\n      dup2\n      mstore\n      0x20\n      add\n      swap1\n      dup2\n      mstore\n      0x20\n      add\n      0x00\n      keccak256\n      0x00\n        /* \"Rachael.sol\":1013:1054  approved[msg.sender][_spender] += _amount */\n      dup3\n      dup3\n      sload\n      tag_85\n      swap2\n      swap1\n      tag_86\n      jump\t// in\n    tag_85:\n      swap3\n      pop\n      pop\n      dup2\n      swap1\n      sstore\n      pop\n        /* \"Rachael.sol\":1086:1094  _spender */\n      dup3\n        /* \"Rachael.sol\":1065:1104  Approval(msg.sender, _spender, _amount) */\n      0xffffffffffffffffffffffffffffffffffffffff\n      and\n        /* \"Rachael.sol\":1074:1084  msg.sender */\n      caller\n        /* \"Rachael.sol\":1065:1104  Approval(msg.sender, _spender, _amount) */\n      0xffffffffffffffffffffffffffffffffffffffff\n      and\n      0x8c5be1e5ebec7d5bd14f71427d1e84f3dd0314c0f7b2291e5b200ac8c7c3b925\n        /* \"Rachael.sol\":1096:1103  _amount */\n      dup5\n        /* \"Rachael.sol\":1065:1104  Approval(msg.sender, _spender, _amount) */\n      mload(0x40)\n      tag_87\n      swap2\n      swap1\n      tag_18\n      jump\t// in\n    tag_87:\n      mload(0x40)\n      dup1\n      swap2\n      sub\n      swap1\n      log3\n        /* \"Rachael.sol\":1117:1121  true */\n      0x01\n        /* \"Rachael.sol\":1110:1121  return true */\n      swap1\n      pop\n        /* \"Rachael.sol\":846:1124  function approve(address _spender, uint256 _amount) public override returns(bool){... */\n      swap3\n      swap2\n      pop\n      pop\n      jump\t// out\n        /* \"Rachael.sol\":1566:1654  function getBalance()public view returns(uint256) {... */\n    tag_36:\n        /* \"Rachael.sol\":1607:1614  uint256 */\n      0x00\n        /* \"Rachael.sol\":1629:1651  address (this).balance */\n      selfbalance\n        /* \"Rachael.sol\":1622:1651  return address (this).balance */\n      swap1\n      pop\n        /* \"Rachael.sol\":1566:1654  function getBalance()public view returns(uint256) {... */\n      swap1\n      jump\t// out\n        /* \"Rachael.sol\":228:292  uint public override totalSupply = 1000000000 * (10 ** decimals) */\n    tag_40:\n      sload(0x03)\n      dup2\n      jump\t// out\n        /* \"Rachael.sol\":1126:1466  function transferFrom(address _from, address _to, uint256 _amount) public override returns(bool){... */\n    tag_46:\n        /* \"Rachael.sol\":1217:1221  bool */\n      0x00\n        /* \"Rachael.sol\":1267:1274  _amount */\n      dup2\n        /* \"Rachael.sol\":1236:1244  approved */\n      0x05\n        /* \"Rachael.sol\":1236:1251  approved[_from] */\n      0x00\n        /* \"Rachael.sol\":1245:1250  _from */\n      dup7\n        /* \"Rachael.sol\":1236:1251  approved[_from] */\n      0xffffffffffffffffffffffffffffffffffffffff\n      and\n      0xffffffffffffffffffffffffffffffffffffffff\n      and\n      dup2\n      mstore\n      0x20\n      add\n      swap1\n      dup2\n      mstore\n      0x20\n      add\n      0x00\n      keccak256\n        /* \"Rachael.sol\":1236:1263  approved[_from][msg.sender] */\n      0x00\n        /* \"Rachael.sol\":1252:1262  msg.sender */\n      caller\n        /* \"Rachael.sol\":1236:1263  approved[_from][msg.sender] */\n      0xffffffffffffffffffffffffffffffffffffffff\n      and\n      0xffffffffffffffffffffffffffffffffffffffff\n      and\n      dup2\n      mstore\n      0x20\n      add\n      swap1\n      dup2\n      mstore\n      0x20\n      add\n      0x00\n      keccak256\n      sload\n        /* \"Rachael.sol\":1236:1274  approved[_from][msg.sender] >= _amount */\n      lt\n      iszero\n        /* \"Rachael.sol\":1228:1298  require(approved[_from][msg.sender] >= _amount, \"Amount not approved\") */\n      tag_90\n      jumpi\n      mload(0x40)\n      0x08c379a000000000000000000000000000000000000000000000000000000000\n      dup2\n      mstore\n      0x04\n      add\n      tag_91\n      swap1\n      tag_92\n      jump\t// in\n    tag_91:\n      mload(0x40)\n      dup1\n      swap2\n      sub\n      swap1\n      revert\n    tag_90:\n        /* \"Rachael.sol\":1335:1342  _amount */\n      dup2\n        /* \"Rachael.sol\":1304:1312  approved */\n      0x05\n        /* \"Rachael.sol\":1304:1319  approved[_from] */\n      0x00\n        /* \"Rachael.sol\":1313:1318  _from */\n      dup7\n        /* \"Rachael.sol\":1304:1319  approved[_from] */\n      0xffffffffffffffffffffffffffffffffffffffff\n      and\n      0xffffffffffffffffffffffffffffffffffffffff\n      and\n      dup2\n      mstore\n      0x20\n      add\n      swap1\n      dup2\n      mstore\n      0x20\n      add\n      0x00\n      keccak256\n        /* \"Rachael.sol\":1304:1331  approved[_from][msg.sender] */\n      0x00\n        /* \"Rachael.sol\":1320:1330  msg.sender */\n      caller\n        /* \"Rachael.sol\":1304:1331  approved[_from][msg.sender] */\n      0xffffffffffffffffffffffffffffffffffffffff\n      and\n      0xffffffffffffffffffffffffffffffffffffffff\n      and\n      dup2\n      mstore\n      0x20\n      add\n      swap1\n      dup2\n      mstore\n      0x20\n      add\n      0x00\n      keccak256\n      0x00\n        /* \"Rachael.sol\":1304:1342  approved[_from][msg.sender] -= _amount */\n      dup3\n      dup3\n      sload\n      tag_93\n      swap2\n      swap1\n      tag_94\n      jump\t// in\n    tag_93:\n      swap3\n      pop\n      pop\n      dup2\n      swap1\n      sstore\n      pop\n        /* \"Rachael.sol\":1368:1375  _amount */\n      dup2\n        /* \"Rachael.sol\":1348:1357  balanceOf */\n      0x04\n        /* \"Rachael.sol\":1348:1364  balanceOf[_from] */\n      0x00\n        /* \"Rachael.sol\":1358:1363  _from */\n      dup7\n        /* \"Rachael.sol\":1348:1364  balanceOf[_from] */\n      0xffffffffffffffffffffffffffffffffffffffff\n      and\n      0xffffffffffffffffffffffffffffffffffffffff\n      and\n      dup2\n      mstore\n      0x20\n      add\n      swap1\n      dup2\n      mstore\n      0x20\n      add\n      0x00\n      keccak256\n      0x00\n        /* \"Rachael.sol\":1348:1375  balanceOf[_from] -= _amount */\n      dup3\n      dup3\n      sload\n      tag_95\n      swap2\n      swap1\n      tag_94\n      jump\t// in\n    tag_95:\n      swap3\n      pop\n      pop\n      dup2\n      swap1\n      sstore\n      pop\n        /* \"Rachael.sol\":1399:1406  _amount */\n      dup2\n        /* \"Rachael.sol\":1381:1390  balanceOf */\n      0x04\n        /* \"Rachael.sol\":1381:1395  balanceOf[_to] */\n      0x00\n        /* \"Rachael.sol\":1391:1394  _to */\n      dup6\n        /* \"Rachael.sol\":1381:1395  balanceOf[_to] */\n      0xffffffffffffffffffffffffffffffffffffffff\n      and\n      0xffffffffffffffffffffffffffffffffffffffff\n      and\n      dup2\n      mstore\n      0x20\n      add\n      swap1\n      dup2\n      mstore\n      0x20\n      add\n      0x00\n      keccak256\n      0x00\n        /* \"Rachael.sol\":1381:1406  balanceOf[_to] += _amount */\n      dup3\n      dup3\n      sload\n      tag_96\n      swap2\n      swap1\n      tag_86\n      jump\t// in\n    tag_96:\n      swap3\n      pop\n      pop\n      dup2\n      swap1\n      sstore\n      pop\n        /* \"Rachael.sol\":1433:1436  _to */\n      dup3\n        /* \"Rachael.sol\":1417:1446  Transfer(_from, _to, _amount) */\n      0xffffffffffffffffffffffffffffffffffffffff\n      and\n        /* \"Rachael.sol\":1426:1431  _from */\n      dup5\n        /* \"Rachael.sol\":1417:1446  Transfer(_from, _to, _amount) */\n      0xffffffffffffffffffffffffffffffffffffffff\n      and\n      0xddf252ad1be2c89b69c2b068fc378daa952ba7f163c4a11628f55a4df523b3ef\n        /* \"Rachael.sol\":1438:1445  _amount */\n      dup5\n        /* \"Rachael.sol\":1417:1446  Transfer(_from, _to, _amount) */\n      mload(0x40)\n      tag_97\n      swap2\n      swap1\n      tag_18\n      jump\t// in\n    tag_97:\n      mload(0x40)\n      dup1\n      swap2\n      sub\n      swap1\n      log3\n        /* \"Rachael.sol\":1459:1463  true */\n      0x01\n        /* \"Rachael.sol\":1452:1463  return true */\n      swap1\n      pop\n        /* \"Rachael.sol\":1126:1466  function transferFrom(address _from, address _to, uint256 _amount) public override returns(bool){... */\n      swap4\n      swap3\n      pop\n      pop\n      pop\n      jump\t// out\n        /* \"Rachael.sol\":201:226  uint public decimals = 18 */\n    tag_50:\n      sload(0x02)\n      dup2\n      jump\t// out\n        /* \"Rachael.sol\":354:407  mapping(address => uint256) public override balanceOf */\n    tag_56:\n      mstore(0x20, 0x04)\n      dup1\n      0x00\n      mstore\n      keccak256(0x00, 0x40)\n      0x00\n      swap2\n      pop\n      swap1\n      pop\n      sload\n      dup2\n      jump\t// out\n        /* \"Rachael.sol\":171:199  string public symbol = \"RCL\" */\n    tag_60:\n      0x01\n      dup1\n      sload\n      tag_98\n      swap1\n      tag_76\n      jump\t// in\n    tag_98:\n      dup1\n      0x1f\n      add\n      0x20\n      dup1\n      swap2\n      div\n      mul\n      0x20\n      add\n      mload(0x40)\n      swap1\n      dup2\n      add\n      0x40\n      mstore\n      dup1\n      swap3\n      swap2\n      swap1\n      dup2\n      dup2\n      mstore\n      0x20\n      add\n      dup3\n      dup1\n      sload\n      tag_99\n      swap1\n      tag_76\n      jump\t// in\n    tag_99:\n      dup1\n      iszero\n      tag_100\n      jumpi\n      dup1\n      0x1f\n      lt\n      tag_101\n      jumpi\n      0x0100\n      dup1\n      dup4\n      sload\n      div\n      mul\n      dup4\n      mstore\n      swap2\n      0x20\n      add\n      swap2\n      jump(tag_100)\n    tag_101:\n      dup3\n      add\n      swap2\n      swap1\n      0x00\n      mstore\n      keccak256(0x00, 0x20)\n      swap1\n    tag_102:\n      dup2\n      sload\n      dup2\n      mstore\n      swap1\n      0x01\n      add\n      swap1\n      0x20\n      add\n      dup1\n      dup4\n      gt\n      tag_102\n      jumpi\n      dup3\n      swap1\n      sub\n      0x1f\n      and\n      dup3\n      add\n      swap2\n    tag_100:\n      pop\n      pop\n      pop\n      pop\n      pop\n      dup2\n      jump\t// out\n        /* \"Rachael.sol\":468:679  function transfer(address _to, uint256 _amount) public override returns(bool){... */\n    tag_65:\n        /* \"Rachael.sol\":540:544  bool */\n      0x00\n        /* \"Rachael.sol\":576:583  _amount */\n      dup2\n        /* \"Rachael.sol\":551:560  balanceOf */\n      0x04\n        /* \"Rachael.sol\":551:572  balanceOf[msg.sender] */\n      0x00\n        /* \"Rachael.sol\":561:571  msg.sender */\n      caller\n        /* \"Rachael.sol\":551:572  balanceOf[msg.sender] */\n      0xffffffffffffffffffffffffffffffffffffffff\n      and\n      0xffffffffffffffffffffffffffffffffffffffff\n      and\n      dup2\n      mstore\n      0x20\n      add\n      swap1\n      dup2\n      mstore\n      0x20\n      add\n      0x00\n      keccak256\n      0x00\n        /* \"Rachael.sol\":551:583  balanceOf[msg.sender] -= _amount */\n      dup3\n      dup3\n      sload\n      tag_104\n      swap2\n      swap1\n      tag_94\n      jump\t// in\n    tag_104:\n      swap3\n      pop\n      pop\n      dup2\n      swap1\n      sstore\n      pop\n        /* \"Rachael.sol\":607:614  _amount */\n      dup2\n        /* \"Rachael.sol\":589:598  balanceOf */\n      0x04\n        /* \"Rachael.sol\":589:603  balanceOf[_to] */\n      0x00\n        /* \"Rachael.sol\":599:602  _to */\n      dup6\n        /* \"Rachael.sol\":589:603  balanceOf[_to] */\n      0xffffffffffffffffffffffffffffffffffffffff\n      and\n      0xffffffffffffffffffffffffffffffffffffffff\n      and\n      dup2\n      mstore\n      0x20\n      add\n      swap1\n      dup2\n      mstore\n      0x20\n      add\n      0x00\n      keccak256\n      0x00\n        /* \"Rachael.sol\":589:614  balanceOf[_to] += _amount */\n      dup3\n      dup3\n      sload\n      tag_105\n      swap2\n      swap1\n      tag_86\n      jump\t// in\n    tag_105:\n      swap3\n      pop\n      pop\n      dup2\n      swap1\n      sstore\n      pop\n        /* \"Rachael.sol\":646:649  _to */\n      dup3\n        /* \"Rachael.sol\":625:659  Transfer(msg.sender, _to, _amount) */\n      0xffffffffffffffffffffffffffffffffffffffff\n      and\n        /* \"Rachael.sol\":634:644  msg.sender */\n      caller\n        /* \"Rachael.sol\":625:659  Transfer(msg.sender, _to, _amount) */\n      0xffffffffffffffffffffffffffffffffffffffff\n      and\n      0xddf252ad1be2c89b69c2b068fc378daa952ba7f163c4a11628f55a4df523b3ef\n        /* \"Rachael.sol\":651:658  _amount */\n      dup5\n        /* \"Rachael.sol\":625:659  Transfer(msg.sender, _to, _amount) */\n      mload(0x40)\n      tag_106\n      swap2\n      swap1\n      tag_18\n      jump\t// in\n    tag_106:\n      mload(0x40)\n      dup1\n      swap2\n      sub\n      swap1\n      log3\n        /* \"Rachael.sol\":672:676  true */\n      0x01\n        /* \"Rachael.sol\":665:676  return true */\n      swap1\n      pop\n        /* \"Rachael.sol\":468:679  function transfer(address _to, uint256 _amount) public override returns(bool){... */\n      swap3\n      swap2\n      pop\n      pop\n      jump\t// out\n        /* \"Rachael.sol\":1497:1564  function deposit() public payable {... */\n    tag_68:\n        /* \"Rachael.sol\":1542:1561  Received(msg.value) */\n      0xa8142743f8f70a4c26f3691cf4ed59718381fb2f18070ec52be1f1022d855557\n        /* \"Rachael.sol\":1551:1560  msg.value */\n      callvalue\n        /* \"Rachael.sol\":1542:1561  Received(msg.value) */\n      mload(0x40)\n      tag_108\n      swap2\n      swap1\n      tag_18\n      jump\t// in\n    tag_108:\n      mload(0x40)\n      dup1\n      swap2\n      sub\n      swap1\n      log1\n        /* \"Rachael.sol\":1497:1564  function deposit() public payable {... */\n      jump\t// out\n        /* \"Rachael.sol\":681:844  function allowance(address _owner, address _spender) public view override returns(uint256){... */\n    tag_73:\n        /* \"Rachael.sol\":763:770  uint256 */\n      0x00\n        /* \"Rachael.sol\":777:792  uint256 _amount */\n      dup1\n        /* \"Rachael.sol\":795:803  approved */\n      0x05\n        /* \"Rachael.sol\":795:811  approved[_owner] */\n      0x00\n        /* \"Rachael.sol\":804:810  _owner */\n      dup6\n        /* \"Rachael.sol\":795:811  approved[_owner] */\n      0xffffffffffffffffffffffffffffffffffffffff\n      and\n      0xffffffffffffffffffffffffffffffffffffffff\n      and\n      dup2\n      mstore\n      0x20\n      add\n      swap1\n      dup2\n      mstore\n      0x20\n      add\n      0x00\n      keccak256\n        /* \"Rachael.sol\":795:821  approved[_owner][_spender] */\n      0x00\n        /* \"Rachael.sol\":812:820  _spender */\n      dup5\n        /* \"Rachael.sol\":795:821  approved[_owner][_spender] */\n      0xffffffffffffffffffffffffffffffffffffffff\n      and\n      0xffffffffffffffffffffffffffffffffffffffff\n      and\n      dup2\n      mstore\n      0x20\n      add\n      swap1\n      dup2\n      mstore\n      0x20\n      add\n      0x00\n      keccak256\n      sload\n        /* \"Rachael.sol\":777:821  uint256 _amount = approved[_owner][_spender] */\n      swap1\n      pop\n        /* \"Rachael.sol\":834:841  _amount */\n      dup1\n        /* \"Rachael.sol\":827:841  return _amount */\n      swap2\n      pop\n      pop\n        /* \"Rachael.sol\":681:844  function allowance(address _owner, address _spender) public view override returns(uint256){... */\n      swap3\n      swap2\n      pop\n      pop\n      jump\t// out\n        /* \"#utility.yul\":7:84   */\n    tag_110:\n        /* \"#utility.yul\":44:51   */\n      0x00\n        /* \"#utility.yul\":73:78   */\n      dup2\n        /* \"#utility.yul\":62:78   */\n      swap1\n      pop\n        /* \"#utility.yul\":7:84   */\n      swap2\n      swap1\n      pop\n      jump\t// out\n        /* \"#utility.yul\":90:208   */\n    tag_111:\n        /* \"#utility.yul\":177:201   */\n      tag_137\n        /* \"#utility.yul\":195:200   */\n      dup2\n        /* \"#utility.yul\":177:201   */\n      tag_110\n      jump\t// in\n    tag_137:\n        /* \"#utility.yul\":172:175   */\n      dup3\n        /* \"#utility.yul\":165:202   */\n      mstore\n        /* \"#utility.yul\":90:208   */\n      pop\n      pop\n      jump\t// out\n        /* \"#utility.yul\":214:436   */\n    tag_18:\n        /* \"#utility.yul\":307:311   */\n      0x00\n        /* \"#utility.yul\":345:347   */\n      0x20\n        /* \"#utility.yul\":334:343   */\n      dup3\n        /* \"#utility.yul\":330:348   */\n      add\n        /* \"#utility.yul\":322:348   */\n      swap1\n      pop\n        /* \"#utility.yul\":358:429   */\n      tag_139\n        /* \"#utility.yul\":426:427   */\n      0x00\n        /* \"#utility.yul\":415:424   */\n      dup4\n        /* \"#utility.yul\":411:428   */\n      add\n        /* \"#utility.yul\":402:408   */\n      dup5\n        /* \"#utility.yul\":358:429   */\n      tag_111\n      jump\t// in\n    tag_139:\n        /* \"#utility.yul\":214:436   */\n      swap3\n      swap2\n      pop\n      pop\n      jump\t// out\n        /* \"#utility.yul\":442:541   */\n    tag_112:\n        /* \"#utility.yul\":494:500   */\n      0x00\n        /* \"#utility.yul\":528:533   */\n      dup2\n        /* \"#utility.yul\":522:534   */\n      mload\n        /* \"#utility.yul\":512:534   */\n      swap1\n      pop\n        /* \"#utility.yul\":442:541   */\n      swap2\n      swap1\n      pop\n      jump\t// out\n        /* \"#utility.yul\":547:716   */\n    tag_113:\n        /* \"#utility.yul\":631:642   */\n      0x00\n        /* \"#utility.yul\":665:671   */\n      dup3\n        /* \"#utility.yul\":660:663   */\n      dup3\n        /* \"#utility.yul\":653:672   */\n      mstore\n        /* \"#utility.yul\":705:709   */\n      0x20\n        /* \"#utility.yul\":700:703   */\n      dup3\n        /* \"#utility.yul\":696:710   */\n      add\n        /* \"#utility.yul\":681:710   */\n      swap1\n      pop\n        /* \"#utility.yul\":547:716   */\n      swap3\n      swap2\n      pop\n      pop\n      jump\t// out\n        /* \"#utility.yul\":722:1029   */\n    tag_114:\n        /* \"#utility.yul\":790:791   */\n      0x00\n        /* \"#utility.yul\":800:913   */\n    tag_143:\n        /* \"#utility.yul\":814:820   */\n      dup4\n        /* \"#utility.yul\":811:812   */\n      dup2\n        /* \"#utility.yul\":808:821   */\n      lt\n        /* \"#utility.yul\":800:913   */\n      iszero\n      tag_145\n      jumpi\n        /* \"#utility.yul\":899:900   */\n      dup1\n        /* \"#utility.yul\":894:897   */\n      dup3\n        /* \"#utility.yul\":890:901   */\n      add\n        /* \"#utility.yul\":884:902   */\n      mload\n        /* \"#utility.yul\":880:881   */\n      dup2\n        /* \"#utility.yul\":875:878   */\n      dup5\n        /* \"#utility.yul\":871:882   */\n      add\n        /* \"#utility.yul\":864:903   */\n      mstore\n        /* \"#utility.yul\":836:838   */\n      0x20\n        /* \"#utility.yul\":833:834   */\n      dup2\n        /* \"#utility.yul\":829:839   */\n      add\n        /* \"#utility.yul\":824:839   */\n      swap1\n      pop\n        /* \"#utility.yul\":800:913   */\n      jump(tag_143)\n    tag_145:\n        /* \"#utility.yul\":931:937   */\n      dup4\n        /* \"#utility.yul\":928:929   */\n      dup2\n        /* \"#utility.yul\":925:938   */\n      gt\n        /* \"#utility.yul\":922:1023   */\n      iszero\n      tag_146\n      jumpi\n        /* \"#utility.yul\":1011:1012   */\n      0x00\n        /* \"#utility.yul\":1002:1008   */\n      dup5\n        /* \"#utility.yul\":997:1000   */\n      dup5\n        /* \"#utility.yul\":993:1009   */\n      add\n        /* \"#utility.yul\":986:1013   */\n      mstore\n        /* \"#utility.yul\":922:1023   */\n    tag_146:\n        /* \"#utility.yul\":771:1029   */\n      pop\n        /* \"#utility.yul\":722:1029   */\n      pop\n      pop\n      pop\n      jump\t// out\n        /* \"#utility.yul\":1035:1137   */\n    tag_115:\n        /* \"#utility.yul\":1076:1082   */\n      0x00\n        /* \"#utility.yul\":1127:1129   */\n      0x1f\n        /* \"#utility.yul\":1123:1130   */\n      not\n        /* \"#utility.yul\":1118:1120   */\n      0x1f\n        /* \"#utility.yul\":1111:1116   */\n      dup4\n        /* \"#utility.yul\":1107:1121   */\n      add\n        /* \"#utility.yul\":1103:1131   */\n      and\n        /* \"#utility.yul\":1093:1131   */\n      swap1\n      pop\n        /* \"#utility.yul\":1035:1137   */\n      swap2\n      swap1\n      pop\n      jump\t// out\n        /* \"#utility.yul\":1143:1507   */\n    tag_116:\n        /* \"#utility.yul\":1231:1234   */\n      0x00\n        /* \"#utility.yul\":1259:1298   */\n      tag_149\n        /* \"#utility.yul\":1292:1297   */\n      dup3\n        /* \"#utility.yul\":1259:1298   */\n      tag_112\n      jump\t// in\n    tag_149:\n        /* \"#utility.yul\":1314:1385   */\n      tag_150\n        /* \"#utility.yul\":1378:1384   */\n      dup2\n        /* \"#utility.yul\":1373:1376   */\n      dup6\n        /* \"#utility.yul\":1314:1385   */\n      tag_113\n      jump\t// in\n    tag_150:\n        /* \"#utility.yul\":1307:1385   */\n      swap4\n      pop\n        /* \"#utility.yul\":1394:1446   */\n      tag_151\n        /* \"#utility.yul\":1439:1445   */\n      dup2\n        /* \"#utility.yul\":1434:1437   */\n      dup6\n        /* \"#utility.yul\":1427:1431   */\n      0x20\n        /* \"#utility.yul\":1420:1425   */\n      dup7\n        /* \"#utility.yul\":1416:1432   */\n      add\n        /* \"#utility.yul\":1394:1446   */\n      tag_114\n      jump\t// in\n    tag_151:\n        /* \"#utility.yul\":1471:1500   */\n      tag_152\n        /* \"#utility.yul\":1493:1499   */\n      dup2\n        /* \"#utility.yul\":1471:1500   */\n      tag_115\n      jump\t// in\n    tag_152:\n        /* \"#utility.yul\":1466:1469   */\n      dup5\n        /* \"#utility.yul\":1462:1501   */\n      add\n        /* \"#utility.yul\":1455:1501   */\n      swap2\n      pop\n        /* \"#utility.yul\":1235:1507   */\n      pop\n        /* \"#utility.yul\":1143:1507   */\n      swap3\n      swap2\n      pop\n      pop\n      jump\t// out\n        /* \"#utility.yul\":1513:1826   */\n    tag_26:\n        /* \"#utility.yul\":1626:1630   */\n      0x00\n        /* \"#utility.yul\":1664:1666   */\n      0x20\n        /* \"#utility.yul\":1653:1662   */\n      dup3\n        /* \"#utility.yul\":1649:1667   */\n      add\n        /* \"#utility.yul\":1641:1667   */\n      swap1\n      pop\n        /* \"#utility.yul\":1713:1722   */\n      dup2\n        /* \"#utility.yul\":1707:1711   */\n      dup2\n        /* \"#utility.yul\":1703:1723   */\n      sub\n        /* \"#utility.yul\":1699:1700   */\n      0x00\n        /* \"#utility.yul\":1688:1697   */\n      dup4\n        /* \"#utility.yul\":1684:1701   */\n      add\n        /* \"#utility.yul\":1677:1724   */\n      mstore\n        /* \"#utility.yul\":1741:1819   */\n      tag_154\n        /* \"#utility.yul\":1814:1818   */\n      dup2\n        /* \"#utility.yul\":1805:1811   */\n      dup5\n        /* \"#utility.yul\":1741:1819   */\n      tag_116\n      jump\t// in\n    tag_154:\n        /* \"#utility.yul\":1733:1819   */\n      swap1\n      pop\n        /* \"#utility.yul\":1513:1826   */\n      swap3\n      swap2\n      pop\n      pop\n      jump\t// out\n        /* \"#utility.yul\":1913:2030   */\n    tag_118:\n        /* \"#utility.yul\":2022:2023   */\n      0x00\n        /* \"#utility.yul\":2019:2020   */\n      dup1\n        /* \"#utility.yul\":2012:2024   */\n      revert\n        /* \"#utility.yul\":2159:2285   */\n    tag_120:\n        /* \"#utility.yul\":2196:2203   */\n      0x00\n        /* \"#utility.yul\":2236:2278   */\n      0xffffffffffffffffffffffffffffffffffffffff\n        /* \"#utility.yul\":2229:2234   */\n      dup3\n        /* \"#utility.yul\":2225:2279   */\n      and\n        /* \"#utility.yul\":2214:2279   */\n      swap1\n      pop\n        /* \"#utility.yul\":2159:2285   */\n      swap2\n      swap1\n      pop\n      jump\t// out\n        /* \"#utility.yul\":2291:2387   */\n    tag_121:\n        /* \"#utility.yul\":2328:2335   */\n      0x00\n        /* \"#utility.yul\":2357:2381   */\n      tag_160\n        /* \"#utility.yul\":2375:2380   */\n      dup3\n        /* \"#utility.yul\":2357:2381   */\n      tag_120\n      jump\t// in\n    tag_160:\n        /* \"#utility.yul\":2346:2381   */\n      swap1\n      pop\n        /* \"#utility.yul\":2291:2387   */\n      swap2\n      swap1\n      pop\n      jump\t// out\n        /* \"#utility.yul\":2393:2515   */\n    tag_122:\n        /* \"#utility.yul\":2466:2490   */\n      tag_162\n        /* \"#utility.yul\":2484:2489   */\n      dup2\n        /* \"#utility.yul\":2466:2490   */\n      tag_121\n      jump\t// in\n    tag_162:\n        /* \"#utility.yul\":2459:2464   */\n      dup2\n        /* \"#utility.yul\":2456:2491   */\n      eq\n        /* \"#utility.yul\":2446:2509   */\n      tag_163\n      jumpi\n        /* \"#utility.yul\":2505:2506   */\n      0x00\n        /* \"#utility.yul\":2502:2503   */\n      dup1\n        /* \"#utility.yul\":2495:2507   */\n      revert\n        /* \"#utility.yul\":2446:2509   */\n    tag_163:\n        /* \"#utility.yul\":2393:2515   */\n      pop\n      jump\t// out\n        /* \"#utility.yul\":2521:2660   */\n    tag_123:\n        /* \"#utility.yul\":2567:2572   */\n      0x00\n        /* \"#utility.yul\":2605:2611   */\n      dup2\n        /* \"#utility.yul\":2592:2612   */\n      calldataload\n        /* \"#utility.yul\":2583:2612   */\n      swap1\n      pop\n        /* \"#utility.yul\":2621:2654   */\n      tag_165\n        /* \"#utility.yul\":2648:2653   */\n      dup2\n        /* \"#utility.yul\":2621:2654   */\n      tag_122\n      jump\t// in\n    tag_165:\n        /* \"#utility.yul\":2521:2660   */\n      swap3\n      swap2\n      pop\n      pop\n      jump\t// out\n        /* \"#utility.yul\":2666:2788   */\n    tag_124:\n        /* \"#utility.yul\":2739:2763   */\n      tag_167\n        /* \"#utility.yul\":2757:2762   */\n      dup2\n        /* \"#utility.yul\":2739:2763   */\n      tag_110\n      jump\t// in\n    tag_167:\n        /* \"#utility.yul\":2732:2737   */\n      dup2\n        /* \"#utility.yul\":2729:2764   */\n      eq\n        /* \"#utility.yul\":2719:2782   */\n      tag_168\n      jumpi\n        /* \"#utility.yul\":2778:2779   */\n      0x00\n        /* \"#utility.yul\":2775:2776   */\n      dup1\n        /* \"#utility.yul\":2768:2780   */\n      revert\n        /* \"#utility.yul\":2719:2782   */\n    tag_168:\n        /* \"#utility.yul\":2666:2788   */\n      pop\n      jump\t// out\n        /* \"#utility.yul\":2794:2933   */\n    tag_125:\n        /* \"#utility.yul\":2840:2845   */\n      0x00\n        /* \"#utility.yul\":2878:2884   */\n      dup2\n        /* \"#utility.yul\":2865:2885   */\n      calldataload\n        /* \"#utility.yul\":2856:2885   */\n      swap1\n      pop\n        /* \"#utility.yul\":2894:2927   */\n      tag_170\n        /* \"#utility.yul\":2921:2926   */\n      dup2\n        /* \"#utility.yul\":2894:2927   */\n      tag_124\n      jump\t// in\n    tag_170:\n        /* \"#utility.yul\":2794:2933   */\n      swap3\n      swap2\n      pop\n      pop\n      jump\t// out\n        /* \"#utility.yul\":2939:3413   */\n    tag_30:\n        /* \"#utility.yul\":3007:3013   */\n      0x00\n        /* \"#utility.yul\":3015:3021   */\n      dup1\n        /* \"#utility.yul\":3064:3066   */\n      0x40\n        /* \"#utility.yul\":3052:3061   */\n      dup4\n        /* \"#utility.yul\":3043:3050   */\n      dup6\n        /* \"#utility.yul\":3039:3062   */\n      sub\n        /* \"#utility.yul\":3035:3067   */\n      slt\n        /* \"#utility.yul\":3032:3151   */\n      iszero\n      tag_172\n      jumpi\n        /* \"#utility.yul\":3070:3149   */\n      tag_173\n      tag_118\n      jump\t// in\n    tag_173:\n        /* \"#utility.yul\":3032:3151   */\n    tag_172:\n        /* \"#utility.yul\":3190:3191   */\n      0x00\n        /* \"#utility.yul\":3215:3268   */\n      tag_174\n        /* \"#utility.yul\":3260:3267   */\n      dup6\n        /* \"#utility.yul\":3251:3257   */\n      dup3\n        /* \"#utility.yul\":3240:3249   */\n      dup7\n        /* \"#utility.yul\":3236:3258   */\n      add\n        /* \"#utility.yul\":3215:3268   */\n      tag_123\n      jump\t// in\n    tag_174:\n        /* \"#utility.yul\":3205:3268   */\n      swap3\n      pop\n        /* \"#utility.yul\":3161:3278   */\n      pop\n        /* \"#utility.yul\":3317:3319   */\n      0x20\n        /* \"#utility.yul\":3343:3396   */\n      tag_175\n        /* \"#utility.yul\":3388:3395   */\n      dup6\n        /* \"#utility.yul\":3379:3385   */\n      dup3\n        /* \"#utility.yul\":3368:3377   */\n      dup7\n        /* \"#utility.yul\":3364:3386   */\n      add\n        /* \"#utility.yul\":3343:3396   */\n      tag_125\n      jump\t// in\n    tag_175:\n        /* \"#utility.yul\":3333:3396   */\n      swap2\n      pop\n        /* \"#utility.yul\":3288:3406   */\n      pop\n        /* \"#utility.yul\":2939:3413   */\n      swap3\n      pop\n      swap3\n      swap1\n      pop\n      jump\t// out\n        /* \"#utility.yul\":3419:3509   */\n    tag_126:\n        /* \"#utility.yul\":3453:3460   */\n      0x00\n        /* \"#utility.yul\":3496:3501   */\n      dup2\n        /* \"#utility.yul\":3489:3502   */\n      iszero\n        /* \"#utility.yul\":3482:3503   */\n      iszero\n        /* \"#utility.yul\":3471:3503   */\n      swap1\n      pop\n        /* \"#utility.yul\":3419:3509   */\n      swap2\n      swap1\n      pop\n      jump\t// out\n        /* \"#utility.yul\":3515:3624   */\n    tag_127:\n        /* \"#utility.yul\":3596:3617   */\n      tag_178\n        /* \"#utility.yul\":3611:3616   */\n      dup2\n        /* \"#utility.yul\":3596:3617   */\n      tag_126\n      jump\t// in\n    tag_178:\n        /* \"#utility.yul\":3591:3594   */\n      dup3\n        /* \"#utility.yul\":3584:3618   */\n      mstore\n        /* \"#utility.yul\":3515:3624   */\n      pop\n      pop\n      jump\t// out\n        /* \"#utility.yul\":3630:3840   */\n    tag_33:\n        /* \"#utility.yul\":3717:3721   */\n      0x00\n        /* \"#utility.yul\":3755:3757   */\n      0x20\n        /* \"#utility.yul\":3744:3753   */\n      dup3\n        /* \"#utility.yul\":3740:3758   */\n      add\n        /* \"#utility.yul\":3732:3758   */\n      swap1\n      pop\n        /* \"#utility.yul\":3768:3833   */\n      tag_180\n        /* \"#utility.yul\":3830:3831   */\n      0x00\n        /* \"#utility.yul\":3819:3828   */\n      dup4\n        /* \"#utility.yul\":3815:3832   */\n      add\n        /* \"#utility.yul\":3806:3812   */\n      dup5\n        /* \"#utility.yul\":3768:3833   */\n      tag_127\n      jump\t// in\n    tag_180:\n        /* \"#utility.yul\":3630:3840   */\n      swap3\n      swap2\n      pop\n      pop\n      jump\t// out\n        /* \"#utility.yul\":3846:4465   */\n    tag_45:\n        /* \"#utility.yul\":3923:3929   */\n      0x00\n        /* \"#utility.yul\":3931:3937   */\n      dup1\n        /* \"#utility.yul\":3939:3945   */\n      0x00\n        /* \"#utility.yul\":3988:3990   */\n      0x60\n        /* \"#utility.yul\":3976:3985   */\n      dup5\n        /* \"#utility.yul\":3967:3974   */\n      dup7\n        /* \"#utility.yul\":3963:3986   */\n      sub\n        /* \"#utility.yul\":3959:3991   */\n      slt\n        /* \"#utility.yul\":3956:4075   */\n      iszero\n      tag_182\n      jumpi\n        /* \"#utility.yul\":3994:4073   */\n      tag_183\n      tag_118\n      jump\t// in\n    tag_183:\n        /* \"#utility.yul\":3956:4075   */\n    tag_182:\n        /* \"#utility.yul\":4114:4115   */\n      0x00\n        /* \"#utility.yul\":4139:4192   */\n      tag_184\n        /* \"#utility.yul\":4184:4191   */\n      dup7\n        /* \"#utility.yul\":4175:4181   */\n      dup3\n        /* \"#utility.yul\":4164:4173   */\n      dup8\n        /* \"#utility.yul\":4160:4182   */\n      add\n        /* \"#utility.yul\":4139:4192   */\n      tag_123\n      jump\t// in\n    tag_184:\n        /* \"#utility.yul\":4129:4192   */\n      swap4\n      pop\n        /* \"#utility.yul\":4085:4202   */\n      pop\n        /* \"#utility.yul\":4241:4243   */\n      0x20\n        /* \"#utility.yul\":4267:4320   */\n      tag_185\n        /* \"#utility.yul\":4312:4319   */\n      dup7\n        /* \"#utility.yul\":4303:4309   */\n      dup3\n        /* \"#utility.yul\":4292:4301   */\n      dup8\n        /* \"#utility.yul\":4288:4310   */\n      add\n        /* \"#utility.yul\":4267:4320   */\n      tag_123\n      jump\t// in\n    tag_185:\n        /* \"#utility.yul\":4257:4320   */\n      swap3\n      pop\n        /* \"#utility.yul\":4212:4330   */\n      pop\n        /* \"#utility.yul\":4369:4371   */\n      0x40\n        /* \"#utility.yul\":4395:4448   */\n      tag_186\n        /* \"#utility.yul\":4440:4447   */\n      dup7\n        /* \"#utility.yul\":4431:4437   */\n      dup3\n        /* \"#utility.yul\":4420:4429   */\n      dup8\n        /* \"#utility.yul\":4416:4438   */\n      add\n        /* \"#utility.yul\":4395:4448   */\n      tag_125\n      jump\t// in\n    tag_186:\n        /* \"#utility.yul\":4385:4448   */\n      swap2\n      pop\n        /* \"#utility.yul\":4340:4458   */\n      pop\n        /* \"#utility.yul\":3846:4465   */\n      swap3\n      pop\n      swap3\n      pop\n      swap3\n      jump\t// out\n        /* \"#utility.yul\":4471:4800   */\n    tag_55:\n        /* \"#utility.yul\":4530:4536   */\n      0x00\n        /* \"#utility.yul\":4579:4581   */\n      0x20\n        /* \"#utility.yul\":4567:4576   */\n      dup3\n        /* \"#utility.yul\":4558:4565   */\n      dup5\n        /* \"#utility.yul\":4554:4577   */\n      sub\n        /* \"#utility.yul\":4550:4582   */\n      slt\n        /* \"#utility.yul\":4547:4666   */\n      iszero\n      tag_188\n      jumpi\n        /* \"#utility.yul\":4585:4664   */\n      tag_189\n      tag_118\n      jump\t// in\n    tag_189:\n        /* \"#utility.yul\":4547:4666   */\n    tag_188:\n        /* \"#utility.yul\":4705:4706   */\n      0x00\n        /* \"#utility.yul\":4730:4783   */\n      tag_190\n        /* \"#utility.yul\":4775:4782   */\n      dup5\n        /* \"#utility.yul\":4766:4772   */\n      dup3\n        /* \"#utility.yul\":4755:4764   */\n      dup6\n        /* \"#utility.yul\":4751:4773   */\n      add\n        /* \"#utility.yul\":4730:4783   */\n      tag_123\n      jump\t// in\n    tag_190:\n        /* \"#utility.yul\":4720:4783   */\n      swap2\n      pop\n        /* \"#utility.yul\":4676:4793   */\n      pop\n        /* \"#utility.yul\":4471:4800   */\n      swap3\n      swap2\n      pop\n      pop\n      jump\t// out\n        /* \"#utility.yul\":4806:5280   */\n    tag_72:\n        /* \"#utility.yul\":4874:4880   */\n      0x00\n        /* \"#utility.yul\":4882:4888   */\n      dup1\n        /* \"#utility.yul\":4931:4933   */\n      0x40\n        /* \"#utility.yul\":4919:4928   */\n      dup4\n        /* \"#utility.yul\":4910:4917   */\n      dup6\n        /* \"#utility.yul\":4906:4929   */\n      sub\n        /* \"#utility.yul\":4902:4934   */\n      slt\n        /* \"#utility.yul\":4899:5018   */\n      iszero\n      tag_192\n      jumpi\n        /* \"#utility.yul\":4937:5016   */\n      tag_193\n      tag_118\n      jump\t// in\n    tag_193:\n        /* \"#utility.yul\":4899:5018   */\n    tag_192:\n        /* \"#utility.yul\":5057:5058   */\n      0x00\n        /* \"#utility.yul\":5082:5135   */\n      tag_194\n        /* \"#utility.yul\":5127:5134   */\n      dup6\n        /* \"#utility.yul\":5118:5124   */\n      dup3\n        /* \"#utility.yul\":5107:5116   */\n      dup7\n        /* \"#utility.yul\":5103:5125   */\n      add\n        /* \"#utility.yul\":5082:5135   */\n      tag_123\n      jump\t// in\n    tag_194:\n        /* \"#utility.yul\":5072:5135   */\n      swap3\n      pop\n        /* \"#utility.yul\":5028:5145   */\n      pop\n        /* \"#utility.yul\":5184:5186   */\n      0x20\n        /* \"#utility.yul\":5210:5263   */\n      tag_195\n        /* \"#utility.yul\":5255:5262   */\n      dup6\n        /* \"#utility.yul\":5246:5252   */\n      dup3\n        /* \"#utility.yul\":5235:5244   */\n      dup7\n        /* \"#utility.yul\":5231:5253   */\n      add\n        /* \"#utility.yul\":5210:5263   */\n      tag_123\n      jump\t// in\n    tag_195:\n        /* \"#utility.yul\":5200:5263   */\n      swap2\n      pop\n        /* \"#utility.yul\":5155:5273   */\n      pop\n        /* \"#utility.yul\":4806:5280   */\n      swap3\n      pop\n      swap3\n      swap1\n      pop\n      jump\t// out\n        /* \"#utility.yul\":5286:5466   */\n    tag_128:\n        /* \"#utility.yul\":5334:5411   */\n      0x4e487b7100000000000000000000000000000000000000000000000000000000\n        /* \"#utility.yul\":5331:5332   */\n      0x00\n        /* \"#utility.yul\":5324:5412   */\n      mstore\n        /* \"#utility.yul\":5431:5435   */\n      0x22\n        /* \"#utility.yul\":5428:5429   */\n      0x04\n        /* \"#utility.yul\":5421:5436   */\n      mstore\n        /* \"#utility.yul\":5455:5459   */\n      0x24\n        /* \"#utility.yul\":5452:5453   */\n      0x00\n        /* \"#utility.yul\":5445:5460   */\n      revert\n        /* \"#utility.yul\":5472:5792   */\n    tag_76:\n        /* \"#utility.yul\":5516:5522   */\n      0x00\n        /* \"#utility.yul\":5553:5554   */\n      0x02\n        /* \"#utility.yul\":5547:5551   */\n      dup3\n        /* \"#utility.yul\":5543:5555   */\n      div\n        /* \"#utility.yul\":5533:5555   */\n      swap1\n      pop\n        /* \"#utility.yul\":5600:5601   */\n      0x01\n        /* \"#utility.yul\":5594:5598   */\n      dup3\n        /* \"#utility.yul\":5590:5602   */\n      and\n        /* \"#utility.yul\":5621:5639   */\n      dup1\n        /* \"#utility.yul\":5611:5692   */\n      tag_198\n      jumpi\n        /* \"#utility.yul\":5677:5681   */\n      0x7f\n        /* \"#utility.yul\":5669:5675   */\n      dup3\n        /* \"#utility.yul\":5665:5682   */\n      and\n        /* \"#utility.yul\":5655:5682   */\n      swap2\n      pop\n        /* \"#utility.yul\":5611:5692   */\n    tag_198:\n        /* \"#utility.yul\":5739:5741   */\n      0x20\n        /* \"#utility.yul\":5731:5737   */\n      dup3\n        /* \"#utility.yul\":5728:5742   */\n      lt\n        /* \"#utility.yul\":5708:5726   */\n      dup2\n        /* \"#utility.yul\":5705:5743   */\n      eq\n        /* \"#utility.yul\":5702:5786   */\n      iszero\n      tag_199\n      jumpi\n        /* \"#utility.yul\":5758:5776   */\n      tag_200\n      tag_128\n      jump\t// in\n    tag_200:\n        /* \"#utility.yul\":5702:5786   */\n    tag_199:\n        /* \"#utility.yul\":5523:5792   */\n      pop\n        /* \"#utility.yul\":5472:5792   */\n      swap2\n      swap1\n      pop\n      jump\t// out\n        /* \"#utility.yul\":5798:5977   */\n    tag_129:\n        /* \"#utility.yul\":5938:5969   */\n      0x596f7520646f6e2774206861766520656e6f7567682062616c616e6365000000\n        /* \"#utility.yul\":5934:5935   */\n      0x00\n        /* \"#utility.yul\":5926:5932   */\n      dup3\n        /* \"#utility.yul\":5922:5936   */\n      add\n        /* \"#utility.yul\":5915:5970   */\n      mstore\n        /* \"#utility.yul\":5798:5977   */\n      pop\n      jump\t// out\n        /* \"#utility.yul\":5983:6349   */\n    tag_130:\n        /* \"#utility.yul\":6125:6128   */\n      0x00\n        /* \"#utility.yul\":6146:6213   */\n      tag_203\n        /* \"#utility.yul\":6210:6212   */\n      0x1d\n        /* \"#utility.yul\":6205:6208   */\n      dup4\n        /* \"#utility.yul\":6146:6213   */\n      tag_113\n      jump\t// in\n    tag_203:\n        /* \"#utility.yul\":6139:6213   */\n      swap2\n      pop\n        /* \"#utility.yul\":6222:6315   */\n      tag_204\n        /* \"#utility.yul\":6311:6314   */\n      dup3\n        /* \"#utility.yul\":6222:6315   */\n      tag_129\n      jump\t// in\n    tag_204:\n        /* \"#utility.yul\":6340:6342   */\n      0x20\n        /* \"#utility.yul\":6335:6338   */\n      dup3\n        /* \"#utility.yul\":6331:6343   */\n      add\n        /* \"#utility.yul\":6324:6343   */\n      swap1\n      pop\n        /* \"#utility.yul\":5983:6349   */\n      swap2\n      swap1\n      pop\n      jump\t// out\n        /* \"#utility.yul\":6355:6774   */\n    tag_84:\n        /* \"#utility.yul\":6521:6525   */\n      0x00\n        /* \"#utility.yul\":6559:6561   */\n      0x20\n        /* \"#utility.yul\":6548:6557   */\n      dup3\n        /* \"#utility.yul\":6544:6562   */\n      add\n        /* \"#utility.yul\":6536:6562   */\n      swap1\n      pop\n        /* \"#utility.yul\":6608:6617   */\n      dup2\n        /* \"#utility.yul\":6602:6606   */\n      dup2\n        /* \"#utility.yul\":6598:6618   */\n      sub\n        /* \"#utility.yul\":6594:6595   */\n      0x00\n        /* \"#utility.yul\":6583:6592   */\n      dup4\n        /* \"#utility.yul\":6579:6596   */\n      add\n        /* \"#utility.yul\":6572:6619   */\n      mstore\n        /* \"#utility.yul\":6636:6767   */\n      tag_206\n        /* \"#utility.yul\":6762:6766   */\n      dup2\n        /* \"#utility.yul\":6636:6767   */\n      tag_130\n      jump\t// in\n    tag_206:\n        /* \"#utility.yul\":6628:6767   */\n      swap1\n      pop\n        /* \"#utility.yul\":6355:6774   */\n      swap2\n      swap1\n      pop\n      jump\t// out\n        /* \"#utility.yul\":6780:6960   */\n    tag_131:\n        /* \"#utility.yul\":6828:6905   */\n      0x4e487b7100000000000000000000000000000000000000000000000000000000\n        /* \"#utility.yul\":6825:6826   */\n      0x00\n        /* \"#utility.yul\":6818:6906   */\n      mstore\n        /* \"#utility.yul\":6925:6929   */\n      0x11\n        /* \"#utility.yul\":6922:6923   */\n      0x04\n        /* \"#utility.yul\":6915:6930   */\n      mstore\n        /* \"#utility.yul\":6949:6953   */\n      0x24\n        /* \"#utility.yul\":6946:6947   */\n      0x00\n        /* \"#utility.yul\":6939:6954   */\n      revert\n        /* \"#utility.yul\":6966:7271   */\n    tag_86:\n        /* \"#utility.yul\":7006:7009   */\n      0x00\n        /* \"#utility.yul\":7025:7045   */\n      tag_209\n        /* \"#utility.yul\":7043:7044   */\n      dup3\n        /* \"#utility.yul\":7025:7045   */\n      tag_110\n      jump\t// in\n    tag_209:\n        /* \"#utility.yul\":7020:7045   */\n      swap2\n      pop\n        /* \"#utility.yul\":7059:7079   */\n      tag_210\n        /* \"#utility.yul\":7077:7078   */\n      dup4\n        /* \"#utility.yul\":7059:7079   */\n      tag_110\n      jump\t// in\n    tag_210:\n        /* \"#utility.yul\":7054:7079   */\n      swap3\n      pop\n        /* \"#utility.yul\":7213:7214   */\n      dup3\n        /* \"#utility.yul\":7145:7211   */\n      0xffffffffffffffffffffffffffffffffffffffffffffffffffffffffffffffff\n        /* \"#utility.yul\":7141:7215   */\n      sub\n        /* \"#utility.yul\":7138:7139   */\n      dup3\n        /* \"#utility.yul\":7135:7216   */\n      gt\n        /* \"#utility.yul\":7132:7239   */\n      iszero\n      tag_211\n      jumpi\n        /* \"#utility.yul\":7219:7237   */\n      tag_212\n      tag_131\n      jump\t// in\n    tag_212:\n        /* \"#utility.yul\":7132:7239   */\n    tag_211:\n        /* \"#utility.yul\":7263:7264   */\n      dup3\n        /* \"#utility.yul\":7260:7261   */\n      dup3\n        /* \"#utility.yul\":7256:7265   */\n      add\n        /* \"#utility.yul\":7249:7265   */\n      swap1\n      pop\n        /* \"#utility.yul\":6966:7271   */\n      swap3\n      swap2\n      pop\n      pop\n      jump\t// out\n        /* \"#utility.yul\":7277:7446   */\n    tag_132:\n        /* \"#utility.yul\":7417:7438   */\n      0x416d6f756e74206e6f7420617070726f76656400000000000000000000000000\n        /* \"#utility.yul\":7413:7414   */\n      0x00\n        /* \"#utility.yul\":7405:7411   */\n      dup3\n        /* \"#utility.yul\":7401:7415   */\n      add\n        /* \"#utility.yul\":7394:7439   */\n      mstore\n        /* \"#utility.yul\":7277:7446   */\n      pop\n      jump\t// out\n        /* \"#utility.yul\":7452:7818   */\n    tag_133:\n        /* \"#utility.yul\":7594:7597   */\n      0x00\n        /* \"#utility.yul\":7615:7682   */\n      tag_215\n        /* \"#utility.yul\":7679:7681   */\n      0x13\n        /* \"#utility.yul\":7674:7677   */\n      dup4\n        /* \"#utility.yul\":7615:7682   */\n      tag_113\n      jump\t// in\n    tag_215:\n        /* \"#utility.yul\":7608:7682   */\n      swap2\n      pop\n        /* \"#utility.yul\":7691:7784   */\n      tag_216\n        /* \"#utility.yul\":7780:7783   */\n      dup3\n        /* \"#utility.yul\":7691:7784   */\n      tag_132\n      jump\t// in\n    tag_216:\n        /* \"#utility.yul\":7809:7811   */\n      0x20\n        /* \"#utility.yul\":7804:7807   */\n      dup3\n        /* \"#utility.yul\":7800:7812   */\n      add\n        /* \"#utility.yul\":7793:7812   */\n      swap1\n      pop\n        /* \"#utility.yul\":7452:7818   */\n      swap2\n      swap1\n      pop\n      jump\t// out\n        /* \"#utility.yul\":7824:8243   */\n    tag_92:\n        /* \"#utility.yul\":7990:7994   */\n      0x00\n        /* \"#utility.yul\":8028:8030   */\n      0x20\n        /* \"#utility.yul\":8017:8026   */\n      dup3\n        /* \"#utility.yul\":8013:8031   */\n      add\n        /* \"#utility.yul\":8005:8031   */\n      swap1\n      pop\n        /* \"#utility.yul\":8077:8086   */\n      dup2\n        /* \"#utility.yul\":8071:8075   */\n      dup2\n        /* \"#utility.yul\":8067:8087   */\n      sub\n        /* \"#utility.yul\":8063:8064   */\n      0x00\n        /* \"#utility.yul\":8052:8061   */\n      dup4\n        /* \"#utility.yul\":8048:8065   */\n      add\n        /* \"#utility.yul\":8041:8088   */\n      mstore\n        /* \"#utility.yul\":8105:8236   */\n      tag_218\n        /* \"#utility.yul\":8231:8235   */\n      dup2\n        /* \"#utility.yul\":8105:8236   */\n      tag_133\n      jump\t// in\n    tag_218:\n        /* \"#utility.yul\":8097:8236   */\n      swap1\n      pop\n        /* \"#utility.yul\":7824:8243   */\n      swap2\n      swap1\n      pop\n      jump\t// out\n        /* \"#utility.yul\":8249:8440   */\n    tag_94:\n        /* \"#utility.yul\":8289:8293   */\n      0x00\n        /* \"#utility.yul\":8309:8329   */\n      tag_220\n        /* \"#utility.yul\":8327:8328   */\n      dup3\n        /* \"#utility.yul\":8309:8329   */\n      tag_110\n      jump\t// in\n    tag_220:\n        /* \"#utility.yul\":8304:8329   */\n      swap2\n      pop\n        /* \"#utility.yul\":8343:8363   */\n      tag_221\n        /* \"#utility.yul\":8361:8362   */\n      dup4\n        /* \"#utility.yul\":8343:8363   */\n      tag_110\n      jump\t// in\n    tag_221:\n        /* \"#utility.yul\":8338:8363   */\n      swap3\n      pop\n        /* \"#utility.yul\":8382:8383   */\n      dup3\n        /* \"#utility.yul\":8379:8380   */\n      dup3\n        /* \"#utility.yul\":8376:8384   */\n      lt\n        /* \"#utility.yul\":8373:8407   */\n      iszero\n      tag_222\n      jumpi\n        /* \"#utility.yul\":8387:8405   */\n      tag_223\n      tag_131\n      jump\t// in\n    tag_223:\n        /* \"#utility.yul\":8373:8407   */\n    tag_222:\n        /* \"#utility.yul\":8432:8433   */\n      dup3\n        /* \"#utility.yul\":8429:8430   */\n      dup3\n        /* \"#utility.yul\":8425:8434   */\n      sub\n        /* \"#utility.yul\":8417:8434   */\n      swap1\n      pop\n        /* \"#utility.yul\":8249:8440   */\n      swap3\n      swap2\n      pop\n      pop\n      jump\t// out\n\n    auxdata: 0xa26469706673582212205374904f4e6512c59420122eec08b71534ec14acb9c3479a4e98453977f6955e64736f6c634300080c0033\n}\n",
				"bytecode": {
					"linkReferences": {},
					"object": "60806040526040518060400160405280600781526020017f5261636861656c00000000000000000000000000000000000000000000000000815250600090805190602001906200005192919062000124565b506040518060400160405280600381526020017f52434c0000000000000000000000000000000000000000000000000000000000815250600190805190602001906200009f92919062000124565b506012600255600254600a620000b6919062000361565b633b9aca00620000c79190620003b2565b600355348015620000d757600080fd5b50600354600460003373ffffffffffffffffffffffffffffffffffffffff1673ffffffffffffffffffffffffffffffffffffffff1681526020019081526020016000208190555062000478565b828054620001329062000442565b90600052602060002090601f016020900481019282620001565760008555620001a2565b82601f106200017157805160ff1916838001178555620001a2565b82800160010185558215620001a2579182015b82811115620001a157825182559160200191906001019062000184565b5b509050620001b19190620001b5565b5090565b5b80821115620001d0576000816000905550600101620001b6565b5090565b7f4e487b7100000000000000000000000000000000000000000000000000000000600052601160045260246000fd5b60008160011c9050919050565b6000808291508390505b600185111562000262578086048111156200023a5762000239620001d4565b5b60018516156200024a5780820291505b80810290506200025a8562000203565b94506200021a565b94509492505050565b6000826200027d576001905062000350565b816200028d576000905062000350565b8160018114620002a65760028114620002b157620002e7565b600191505062000350565b60ff841115620002c657620002c5620001d4565b5b8360020a915084821115620002e057620002df620001d4565b5b5062000350565b5060208310610133831016604e8410600b8410161715620003215782820a9050838111156200031b576200031a620001d4565b5b62000350565b62000330848484600162000210565b925090508184048111156200034a5762000349620001d4565b5b81810290505b9392505050565b6000819050919050565b60006200036e8262000357565b91506200037b8362000357565b9250620003aa7fffffffffffffffffffffffffffffffffffffffffffffffffffffffffffffffff84846200026b565b905092915050565b6000620003bf8262000357565b9150620003cc8362000357565b9250817fffffffffffffffffffffffffffffffffffffffffffffffffffffffffffffffff0483118215151615620004085762000407620001d4565b5b828202905092915050565b7f4e487b7100000000000000000000000000000000000000000000000000000000600052602260045260246000fd5b600060028204905060018216806200045b57607f821691505b6020821081141562000472576200047162000413565b5b50919050565b610f2580620004886000396000f3fe6080604052600436106100a05760003560e01c8063313ce56711610064578063313ce5671461021257806370a082311461023d57806395d89b411461027a578063a9059cbb146102a5578063d0e30db0146102e2578063dd62ed3e146102ec576100de565b806306fdde0314610117578063095ea7b31461014257806312065fe01461017f57806318160ddd146101aa57806323b872dd146101d5576100de565b366100de577fa8142743f8f70a4c26f3691cf4ed59718381fb2f18070ec52be1f1022d855557346040516100d49190610a62565b60405180910390a1005b7fa8142743f8f70a4c26f3691cf4ed59718381fb2f18070ec52be1f1022d8555573460405161010d9190610a62565b60405180910390a1005b34801561012357600080fd5b5061012c610329565b6040516101399190610b16565b60405180910390f35b34801561014e57600080fd5b5061016960048036038101906101649190610bc7565b6103b7565b6040516101769190610c22565b60405180910390f35b34801561018b57600080fd5b5061019461053d565b6040516101a19190610a62565b60405180910390f35b3480156101b657600080fd5b506101bf610545565b6040516101cc9190610a62565b60405180910390f35b3480156101e157600080fd5b506101fc60048036038101906101f79190610c3d565b61054b565b6040516102099190610c22565b60405180910390f35b34801561021e57600080fd5b506102276107bb565b6040516102349190610a62565b60405180910390f35b34801561024957600080fd5b50610264600480360381019061025f9190610c90565b6107c1565b6040516102719190610a62565b60405180910390f35b34801561028657600080fd5b5061028f6107d9565b60405161029c9190610b16565b60405180910390f35b3480156102b157600080fd5b506102cc60048036038101906102c79190610bc7565b610867565b6040516102d99190610c22565b60405180910390f35b6102ea610984565b005b3480156102f857600080fd5b50610313600480360381019061030e9190610cbd565b6109bd565b6040516103209190610a62565b60405180910390f35b6000805461033690610d2c565b80601f016020809104026020016040519081016040528092919081815260200182805461036290610d2c565b80156103af5780601f10610384576101008083540402835291602001916103af565b820191906000526020600020905b81548152906001019060200180831161039257829003601f168201915b505050505081565b600081600460003373ffffffffffffffffffffffffffffffffffffffff1673ffffffffffffffffffffffffffffffffffffffff16815260200190815260200160002054101561043b576040517f08c379a000000000000000000000000000000000000000000000000000000000815260040161043290610daa565b60405180910390fd5b81600560003373ffffffffffffffffffffffffffffffffffffffff1673ffffffffffffffffffffffffffffffffffffffff16815260200190815260200160002060008573ffffffffffffffffffffffffffffffffffffffff1673ffffffffffffffffffffffffffffffffffffffff16815260200190815260200160002060008282546104c79190610df9565b925050819055508273ffffffffffffffffffffffffffffffffffffffff163373ffffffffffffffffffffffffffffffffffffffff167f8c5be1e5ebec7d5bd14f71427d1e84f3dd0314c0f7b2291e5b200ac8c7c3b9258460405161052b9190610a62565b60405180910390a36001905092915050565b600047905090565b60035481565b600081600560008673ffffffffffffffffffffffffffffffffffffffff1673ffffffffffffffffffffffffffffffffffffffff16815260200190815260200160002060003373ffffffffffffffffffffffffffffffffffffffff1673ffffffffffffffffffffffffffffffffffffffff16815260200190815260200160002054101561060c576040517f08c379a000000000000000000000000000000000000000000000000000000000815260040161060390610e9b565b60405180910390fd5b81600560008673ffffffffffffffffffffffffffffffffffffffff1673ffffffffffffffffffffffffffffffffffffffff16815260200190815260200160002060003373ffffffffffffffffffffffffffffffffffffffff1673ffffffffffffffffffffffffffffffffffffffff16815260200190815260200160002060008282546106989190610ebb565b9250508190555081600460008673ffffffffffffffffffffffffffffffffffffffff1673ffffffffffffffffffffffffffffffffffffffff16815260200190815260200160002060008282546106ee9190610ebb565b9250508190555081600460008573ffffffffffffffffffffffffffffffffffffffff1673ffffffffffffffffffffffffffffffffffffffff16815260200190815260200160002060008282546107449190610df9565b925050819055508273ffffffffffffffffffffffffffffffffffffffff168473ffffffffffffffffffffffffffffffffffffffff167fddf252ad1be2c89b69c2b068fc378daa952ba7f163c4a11628f55a4df523b3ef846040516107a89190610a62565b60405180910390a3600190509392505050565b60025481565b60046020528060005260406000206000915090505481565b600180546107e690610d2c565b80601f016020809104026020016040519081016040528092919081815260200182805461081290610d2c565b801561085f5780601f106108345761010080835404028352916020019161085f565b820191906000526020600020905b81548152906001019060200180831161084257829003601f168201915b505050505081565b600081600460003373ffffffffffffffffffffffffffffffffffffffff1673ffffffffffffffffffffffffffffffffffffffff16815260200190815260200160002060008282546108b89190610ebb565b9250508190555081600460008573ffffffffffffffffffffffffffffffffffffffff1673ffffffffffffffffffffffffffffffffffffffff168152602001908152602001600020600082825461090e9190610df9565b925050819055508273ffffffffffffffffffffffffffffffffffffffff163373ffffffffffffffffffffffffffffffffffffffff167fddf252ad1be2c89b69c2b068fc378daa952ba7f163c4a11628f55a4df523b3ef846040516109729190610a62565b60405180910390a36001905092915050565b7fa8142743f8f70a4c26f3691cf4ed59718381fb2f18070ec52be1f1022d855557346040516109b39190610a62565b60405180910390a1565b600080600560008573ffffffffffffffffffffffffffffffffffffffff1673ffffffffffffffffffffffffffffffffffffffff16815260200190815260200160002060008473ffffffffffffffffffffffffffffffffffffffff1673ffffffffffffffffffffffffffffffffffffffff1681526020019081526020016000205490508091505092915050565b6000819050919050565b610a5c81610a49565b82525050565b6000602082019050610a776000830184610a53565b92915050565b600081519050919050565b600082825260208201905092915050565b60005b83811015610ab7578082015181840152602081019050610a9c565b83811115610ac6576000848401525b50505050565b6000601f19601f8301169050919050565b6000610ae882610a7d565b610af28185610a88565b9350610b02818560208601610a99565b610b0b81610acc565b840191505092915050565b60006020820190508181036000830152610b308184610add565b905092915050565b600080fd5b600073ffffffffffffffffffffffffffffffffffffffff82169050919050565b6000610b6882610b3d565b9050919050565b610b7881610b5d565b8114610b8357600080fd5b50565b600081359050610b9581610b6f565b92915050565b610ba481610a49565b8114610baf57600080fd5b50565b600081359050610bc181610b9b565b92915050565b60008060408385031215610bde57610bdd610b38565b5b6000610bec85828601610b86565b9250506020610bfd85828601610bb2565b9150509250929050565b60008115159050919050565b610c1c81610c07565b82525050565b6000602082019050610c376000830184610c13565b92915050565b600080600060608486031215610c5657610c55610b38565b5b6000610c6486828701610b86565b9350506020610c7586828701610b86565b9250506040610c8686828701610bb2565b9150509250925092565b600060208284031215610ca657610ca5610b38565b5b6000610cb484828501610b86565b91505092915050565b60008060408385031215610cd457610cd3610b38565b5b6000610ce285828601610b86565b9250506020610cf385828601610b86565b9150509250929050565b7f4e487b7100000000000000000000000000000000000000000000000000000000600052602260045260246000fd5b60006002820490506001821680610d4457607f821691505b60208210811415610d5857610d57610cfd565b5b50919050565b7f596f7520646f6e2774206861766520656e6f7567682062616c616e6365000000600082015250565b6000610d94601d83610a88565b9150610d9f82610d5e565b602082019050919050565b60006020820190508181036000830152610dc381610d87565b9050919050565b7f4e487b7100000000000000000000000000000000000000000000000000000000600052601160045260246000fd5b6000610e0482610a49565b9150610e0f83610a49565b9250827fffffffffffffffffffffffffffffffffffffffffffffffffffffffffffffffff03821115610e4457610e43610dca565b5b828201905092915050565b7f416d6f756e74206e6f7420617070726f76656400000000000000000000000000600082015250565b6000610e85601383610a88565b9150610e9082610e4f565b602082019050919050565b60006020820190508181036000830152610eb481610e78565b9050919050565b6000610ec682610a49565b9150610ed183610a49565b925082821015610ee457610ee3610dca565b5b82820390509291505056fea26469706673582212205374904f4e6512c59420122eec08b71534ec14acb9c3479a4e98453977f6955e64736f6c634300080c0033",
					"opcodes": "PUSH1 0x80 PUSH1 0x40 MSTORE PUSH1 0x40 MLOAD DUP1 PUSH1 0x40 ADD PUSH1 0x40 MSTORE DUP1 PUSH1 0x7 DUP2 MSTORE PUSH1 0x20 ADD PUSH32 0x5261636861656C00000000000000000000000000000000000000000000000000 DUP2 MSTORE POP PUSH1 0x0 SWAP1 DUP1 MLOAD SWAP1 PUSH1 0x20 ADD SWAP1 PUSH3 0x51 SWAP3 SWAP2 SWAP1 PUSH3 0x124 JUMP JUMPDEST POP PUSH1 0x40 MLOAD DUP1 PUSH1 0x40 ADD PUSH1 0x40 MSTORE DUP1 PUSH1 0x3 DUP2 MSTORE PUSH1 0x20 ADD PUSH32 0x52434C0000000000000000000000000000000000000000000000000000000000 DUP2 MSTORE POP PUSH1 0x1 SWAP1 DUP1 MLOAD SWAP1 PUSH1 0x20 ADD SWAP1 PUSH3 0x9F SWAP3 SWAP2 SWAP1 PUSH3 0x124 JUMP JUMPDEST POP PUSH1 0x12 PUSH1 0x2 SSTORE PUSH1 0x2 SLOAD PUSH1 0xA PUSH3 0xB6 SWAP2 SWAP1 PUSH3 0x361 JUMP JUMPDEST PUSH4 0x3B9ACA00 PUSH3 0xC7 SWAP2 SWAP1 PUSH3 0x3B2 JUMP JUMPDEST PUSH1 0x3 SSTORE CALLVALUE DUP1 ISZERO PUSH3 0xD7 JUMPI PUSH1 0x0 DUP1 REVERT JUMPDEST POP PUSH1 0x3 SLOAD PUSH1 0x4 PUSH1 0x0 CALLER PUSH20 0xFFFFFFFFFFFFFFFFFFFFFFFFFFFFFFFFFFFFFFFF AND PUSH20 0xFFFFFFFFFFFFFFFFFFFFFFFFFFFFFFFFFFFFFFFF AND DUP2 MSTORE PUSH1 0x20 ADD SWAP1 DUP2 MSTORE PUSH1 0x20 ADD PUSH1 0x0 KECCAK256 DUP2 SWAP1 SSTORE POP PUSH3 0x478 JUMP JUMPDEST DUP3 DUP1 SLOAD PUSH3 0x132 SWAP1 PUSH3 0x442 JUMP JUMPDEST SWAP1 PUSH1 0x0 MSTORE PUSH1 0x20 PUSH1 0x0 KECCAK256 SWAP1 PUSH1 0x1F ADD PUSH1 0x20 SWAP1 DIV DUP2 ADD SWAP3 DUP3 PUSH3 0x156 JUMPI PUSH1 0x0 DUP6 SSTORE PUSH3 0x1A2 JUMP JUMPDEST DUP3 PUSH1 0x1F LT PUSH3 0x171 JUMPI DUP1 MLOAD PUSH1 0xFF NOT AND DUP4 DUP1 ADD OR DUP6 SSTORE PUSH3 0x1A2 JUMP JUMPDEST DUP3 DUP1 ADD PUSH1 0x1 ADD DUP6 SSTORE DUP3 ISZERO PUSH3 0x1A2 JUMPI SWAP2 DUP3 ADD JUMPDEST DUP3 DUP2 GT ISZERO PUSH3 0x1A1 JUMPI DUP3 MLOAD DUP3 SSTORE SWAP2 PUSH1 0x20 ADD SWAP2 SWAP1 PUSH1 0x1 ADD SWAP1 PUSH3 0x184 JUMP JUMPDEST JUMPDEST POP SWAP1 POP PUSH3 0x1B1 SWAP2 SWAP1 PUSH3 0x1B5 JUMP JUMPDEST POP SWAP1 JUMP JUMPDEST JUMPDEST DUP1 DUP3 GT ISZERO PUSH3 0x1D0 JUMPI PUSH1 0x0 DUP2 PUSH1 0x0 SWAP1 SSTORE POP PUSH1 0x1 ADD PUSH3 0x1B6 JUMP JUMPDEST POP SWAP1 JUMP JUMPDEST PUSH32 0x4E487B7100000000000000000000000000000000000000000000000000000000 PUSH1 0x0 MSTORE PUSH1 0x11 PUSH1 0x4 MSTORE PUSH1 0x24 PUSH1 0x0 REVERT JUMPDEST PUSH1 0x0 DUP2 PUSH1 0x1 SHR SWAP1 POP SWAP2 SWAP1 POP JUMP JUMPDEST PUSH1 0x0 DUP1 DUP3 SWAP2 POP DUP4 SWAP1 POP JUMPDEST PUSH1 0x1 DUP6 GT ISZERO PUSH3 0x262 JUMPI DUP1 DUP7 DIV DUP2 GT ISZERO PUSH3 0x23A JUMPI PUSH3 0x239 PUSH3 0x1D4 JUMP JUMPDEST JUMPDEST PUSH1 0x1 DUP6 AND ISZERO PUSH3 0x24A JUMPI DUP1 DUP3 MUL SWAP2 POP JUMPDEST DUP1 DUP2 MUL SWAP1 POP PUSH3 0x25A DUP6 PUSH3 0x203 JUMP JUMPDEST SWAP5 POP PUSH3 0x21A JUMP JUMPDEST SWAP5 POP SWAP5 SWAP3 POP POP POP JUMP JUMPDEST PUSH1 0x0 DUP3 PUSH3 0x27D JUMPI PUSH1 0x1 SWAP1 POP PUSH3 0x350 JUMP JUMPDEST DUP2 PUSH3 0x28D JUMPI PUSH1 0x0 SWAP1 POP PUSH3 0x350 JUMP JUMPDEST DUP2 PUSH1 0x1 DUP2 EQ PUSH3 0x2A6 JUMPI PUSH1 0x2 DUP2 EQ PUSH3 0x2B1 JUMPI PUSH3 0x2E7 JUMP JUMPDEST PUSH1 0x1 SWAP2 POP POP PUSH3 0x350 JUMP JUMPDEST PUSH1 0xFF DUP5 GT ISZERO PUSH3 0x2C6 JUMPI PUSH3 0x2C5 PUSH3 0x1D4 JUMP JUMPDEST JUMPDEST DUP4 PUSH1 0x2 EXP SWAP2 POP DUP5 DUP3 GT ISZERO PUSH3 0x2E0 JUMPI PUSH3 0x2DF PUSH3 0x1D4 JUMP JUMPDEST JUMPDEST POP PUSH3 0x350 JUMP JUMPDEST POP PUSH1 0x20 DUP4 LT PUSH2 0x133 DUP4 LT AND PUSH1 0x4E DUP5 LT PUSH1 0xB DUP5 LT AND OR ISZERO PUSH3 0x321 JUMPI DUP3 DUP3 EXP SWAP1 POP DUP4 DUP2 GT ISZERO PUSH3 0x31B JUMPI PUSH3 0x31A PUSH3 0x1D4 JUMP JUMPDEST JUMPDEST PUSH3 0x350 JUMP JUMPDEST PUSH3 0x330 DUP5 DUP5 DUP5 PUSH1 0x1 PUSH3 0x210 JUMP JUMPDEST SWAP3 POP SWAP1 POP DUP2 DUP5 DIV DUP2 GT ISZERO PUSH3 0x34A JUMPI PUSH3 0x349 PUSH3 0x1D4 JUMP JUMPDEST JUMPDEST DUP2 DUP2 MUL SWAP1 POP JUMPDEST SWAP4 SWAP3 POP POP POP JUMP JUMPDEST PUSH1 0x0 DUP2 SWAP1 POP SWAP2 SWAP1 POP JUMP JUMPDEST PUSH1 0x0 PUSH3 0x36E DUP3 PUSH3 0x357 JUMP JUMPDEST SWAP2 POP PUSH3 0x37B DUP4 PUSH3 0x357 JUMP JUMPDEST SWAP3 POP PUSH3 0x3AA PUSH32 0xFFFFFFFFFFFFFFFFFFFFFFFFFFFFFFFFFFFFFFFFFFFFFFFFFFFFFFFFFFFFFFFF DUP5 DUP5 PUSH3 0x26B JUMP JUMPDEST SWAP1 POP SWAP3 SWAP2 POP POP JUMP JUMPDEST PUSH1 0x0 PUSH3 0x3BF DUP3 PUSH3 0x357 JUMP JUMPDEST SWAP2 POP PUSH3 0x3CC DUP4 PUSH3 0x357 JUMP JUMPDEST SWAP3 POP DUP2 PUSH32 0xFFFFFFFFFFFFFFFFFFFFFFFFFFFFFFFFFFFFFFFFFFFFFFFFFFFFFFFFFFFFFFFF DIV DUP4 GT DUP3 ISZERO ISZERO AND ISZERO PUSH3 0x408 JUMPI PUSH3 0x407 PUSH3 0x1D4 JUMP JUMPDEST JUMPDEST DUP3 DUP3 MUL SWAP1 POP SWAP3 SWAP2 POP POP JUMP JUMPDEST PUSH32 0x4E487B7100000000000000000000000000000000000000000000000000000000 PUSH1 0x0 MSTORE PUSH1 0x22 PUSH1 0x4 MSTORE PUSH1 0x24 PUSH1 0x0 REVERT JUMPDEST PUSH1 0x0 PUSH1 0x2 DUP3 DIV SWAP1 POP PUSH1 0x1 DUP3 AND DUP1 PUSH3 0x45B JUMPI PUSH1 0x7F DUP3 AND SWAP2 POP JUMPDEST PUSH1 0x20 DUP3 LT DUP2 EQ ISZERO PUSH3 0x472 JUMPI PUSH3 0x471 PUSH3 0x413 JUMP JUMPDEST JUMPDEST POP SWAP2 SWAP1 POP JUMP JUMPDEST PUSH2 0xF25 DUP1 PUSH3 0x488 PUSH1 0x0 CODECOPY PUSH1 0x0 RETURN INVALID PUSH1 0x80 PUSH1 0x40 MSTORE PUSH1 0x4 CALLDATASIZE LT PUSH2 0xA0 JUMPI PUSH1 0x0 CALLDATALOAD PUSH1 0xE0 SHR DUP1 PUSH4 0x313CE567 GT PUSH2 0x64 JUMPI DUP1 PUSH4 0x313CE567 EQ PUSH2 0x212 JUMPI DUP1 PUSH4 0x70A08231 EQ PUSH2 0x23D JUMPI DUP1 PUSH4 0x95D89B41 EQ PUSH2 0x27A JUMPI DUP1 PUSH4 0xA9059CBB EQ PUSH2 0x2A5 JUMPI DUP1 PUSH4 0xD0E30DB0 EQ PUSH2 0x2E2 JUMPI DUP1 PUSH4 0xDD62ED3E EQ PUSH2 0x2EC JUMPI PUSH2 0xDE JUMP JUMPDEST DUP1 PUSH4 0x6FDDE03 EQ PUSH2 0x117 JUMPI DUP1 PUSH4 0x95EA7B3 EQ PUSH2 0x142 JUMPI DUP1 PUSH4 0x12065FE0 EQ PUSH2 0x17F JUMPI DUP1 PUSH4 0x18160DDD EQ PUSH2 0x1AA JUMPI DUP1 PUSH4 0x23B872DD EQ PUSH2 0x1D5 JUMPI PUSH2 0xDE JUMP JUMPDEST CALLDATASIZE PUSH2 0xDE JUMPI PUSH32 0xA8142743F8F70A4C26F3691CF4ED59718381FB2F18070EC52BE1F1022D855557 CALLVALUE PUSH1 0x40 MLOAD PUSH2 0xD4 SWAP2 SWAP1 PUSH2 0xA62 JUMP JUMPDEST PUSH1 0x40 MLOAD DUP1 SWAP2 SUB SWAP1 LOG1 STOP JUMPDEST PUSH32 0xA8142743F8F70A4C26F3691CF4ED59718381FB2F18070EC52BE1F1022D855557 CALLVALUE PUSH1 0x40 MLOAD PUSH2 0x10D SWAP2 SWAP1 PUSH2 0xA62 JUMP JUMPDEST PUSH1 0x40 MLOAD DUP1 SWAP2 SUB SWAP1 LOG1 STOP JUMPDEST CALLVALUE DUP1 ISZERO PUSH2 0x123 JUMPI PUSH1 0x0 DUP1 REVERT JUMPDEST POP PUSH2 0x12C PUSH2 0x329 JUMP JUMPDEST PUSH1 0x40 MLOAD PUSH2 0x139 SWAP2 SWAP1 PUSH2 0xB16 JUMP JUMPDEST PUSH1 0x40 MLOAD DUP1 SWAP2 SUB SWAP1 RETURN JUMPDEST CALLVALUE DUP1 ISZERO PUSH2 0x14E JUMPI PUSH1 0x0 DUP1 REVERT JUMPDEST POP PUSH2 0x169 PUSH1 0x4 DUP1 CALLDATASIZE SUB DUP2 ADD SWAP1 PUSH2 0x164 SWAP2 SWAP1 PUSH2 0xBC7 JUMP JUMPDEST PUSH2 0x3B7 JUMP JUMPDEST PUSH1 0x40 MLOAD PUSH2 0x176 SWAP2 SWAP1 PUSH2 0xC22 JUMP JUMPDEST PUSH1 0x40 MLOAD DUP1 SWAP2 SUB SWAP1 RETURN JUMPDEST CALLVALUE DUP1 ISZERO PUSH2 0x18B JUMPI PUSH1 0x0 DUP1 REVERT JUMPDEST POP PUSH2 0x194 PUSH2 0x53D JUMP JUMPDEST PUSH1 0x40 MLOAD PUSH2 0x1A1 SWAP2 SWAP1 PUSH2 0xA62 JUMP JUMPDEST PUSH1 0x40 MLOAD DUP1 SWAP2 SUB SWAP1 RETURN JUMPDEST CALLVALUE DUP1 ISZERO PUSH2 0x1B6 JUMPI PUSH1 0x0 DUP1 REVERT JUMPDEST POP PUSH2 0x1BF PUSH2 0x545 JUMP JUMPDEST PUSH1 0x40 MLOAD PUSH2 0x1CC SWAP2 SWAP1 PUSH2 0xA62 JUMP JUMPDEST PUSH1 0x40 MLOAD DUP1 SWAP2 SUB SWAP1 RETURN JUMPDEST CALLVALUE DUP1 ISZERO PUSH2 0x1E1 JUMPI PUSH1 0x0 DUP1 REVERT JUMPDEST POP PUSH2 0x1FC PUSH1 0x4 DUP1 CALLDATASIZE SUB DUP2 ADD SWAP1 PUSH2 0x1F7 SWAP2 SWAP1 PUSH2 0xC3D JUMP JUMPDEST PUSH2 0x54B JUMP JUMPDEST PUSH1 0x40 MLOAD PUSH2 0x209 SWAP2 SWAP1 PUSH2 0xC22 JUMP JUMPDEST PUSH1 0x40 MLOAD DUP1 SWAP2 SUB SWAP1 RETURN JUMPDEST CALLVALUE DUP1 ISZERO PUSH2 0x21E JUMPI PUSH1 0x0 DUP1 REVERT JUMPDEST POP PUSH2 0x227 PUSH2 0x7BB JUMP JUMPDEST PUSH1 0x40 MLOAD PUSH2 0x234 SWAP2 SWAP1 PUSH2 0xA62 JUMP JUMPDEST PUSH1 0x40 MLOAD DUP1 SWAP2 SUB SWAP1 RETURN JUMPDEST CALLVALUE DUP1 ISZERO PUSH2 0x249 JUMPI PUSH1 0x0 DUP1 REVERT JUMPDEST POP PUSH2 0x264 PUSH1 0x4 DUP1 CALLDATASIZE SUB DUP2 ADD SWAP1 PUSH2 0x25F SWAP2 SWAP1 PUSH2 0xC90 JUMP JUMPDEST PUSH2 0x7C1 JUMP JUMPDEST PUSH1 0x40 MLOAD PUSH2 0x271 SWAP2 SWAP1 PUSH2 0xA62 JUMP JUMPDEST PUSH1 0x40 MLOAD DUP1 SWAP2 SUB SWAP1 RETURN JUMPDEST CALLVALUE DUP1 ISZERO PUSH2 0x286 JUMPI PUSH1 0x0 DUP1 REVERT JUMPDEST POP PUSH2 0x28F PUSH2 0x7D9 JUMP JUMPDEST PUSH1 0x40 MLOAD PUSH2 0x29C SWAP2 SWAP1 PUSH2 0xB16 JUMP JUMPDEST PUSH1 0x40 MLOAD DUP1 SWAP2 SUB SWAP1 RETURN JUMPDEST CALLVALUE DUP1 ISZERO PUSH2 0x2B1 JUMPI PUSH1 0x0 DUP1 REVERT JUMPDEST POP PUSH2 0x2CC PUSH1 0x4 DUP1 CALLDATASIZE SUB DUP2 ADD SWAP1 PUSH2 0x2C7 SWAP2 SWAP1 PUSH2 0xBC7 JUMP JUMPDEST PUSH2 0x867 JUMP JUMPDEST PUSH1 0x40 MLOAD PUSH2 0x2D9 SWAP2 SWAP1 PUSH2 0xC22 JUMP JUMPDEST PUSH1 0x40 MLOAD DUP1 SWAP2 SUB SWAP1 RETURN JUMPDEST PUSH2 0x2EA PUSH2 0x984 JUMP JUMPDEST STOP JUMPDEST CALLVALUE DUP1 ISZERO PUSH2 0x2F8 JUMPI PUSH1 0x0 DUP1 REVERT JUMPDEST POP PUSH2 0x313 PUSH1 0x4 DUP1 CALLDATASIZE SUB DUP2 ADD SWAP1 PUSH2 0x30E SWAP2 SWAP1 PUSH2 0xCBD JUMP JUMPDEST PUSH2 0x9BD JUMP JUMPDEST PUSH1 0x40 MLOAD PUSH2 0x320 SWAP2 SWAP1 PUSH2 0xA62 JUMP JUMPDEST PUSH1 0x40 MLOAD DUP1 SWAP2 SUB SWAP1 RETURN JUMPDEST PUSH1 0x0 DUP1 SLOAD PUSH2 0x336 SWAP1 PUSH2 0xD2C JUMP JUMPDEST DUP1 PUSH1 0x1F ADD PUSH1 0x20 DUP1 SWAP2 DIV MUL PUSH1 0x20 ADD PUSH1 0x40 MLOAD SWAP1 DUP2 ADD PUSH1 0x40 MSTORE DUP1 SWAP3 SWAP2 SWAP1 DUP2 DUP2 MSTORE PUSH1 0x20 ADD DUP3 DUP1 SLOAD PUSH2 0x362 SWAP1 PUSH2 0xD2C JUMP JUMPDEST DUP1 ISZERO PUSH2 0x3AF JUMPI DUP1 PUSH1 0x1F LT PUSH2 0x384 JUMPI PUSH2 0x100 DUP1 DUP4 SLOAD DIV MUL DUP4 MSTORE SWAP2 PUSH1 0x20 ADD SWAP2 PUSH2 0x3AF JUMP JUMPDEST DUP3 ADD SWAP2 SWAP1 PUSH1 0x0 MSTORE PUSH1 0x20 PUSH1 0x0 KECCAK256 SWAP1 JUMPDEST DUP2 SLOAD DUP2 MSTORE SWAP1 PUSH1 0x1 ADD SWAP1 PUSH1 0x20 ADD DUP1 DUP4 GT PUSH2 0x392 JUMPI DUP3 SWAP1 SUB PUSH1 0x1F AND DUP3 ADD SWAP2 JUMPDEST POP POP POP POP POP DUP2 JUMP JUMPDEST PUSH1 0x0 DUP2 PUSH1 0x4 PUSH1 0x0 CALLER PUSH20 0xFFFFFFFFFFFFFFFFFFFFFFFFFFFFFFFFFFFFFFFF AND PUSH20 0xFFFFFFFFFFFFFFFFFFFFFFFFFFFFFFFFFFFFFFFF AND DUP2 MSTORE PUSH1 0x20 ADD SWAP1 DUP2 MSTORE PUSH1 0x20 ADD PUSH1 0x0 KECCAK256 SLOAD LT ISZERO PUSH2 0x43B JUMPI PUSH1 0x40 MLOAD PUSH32 0x8C379A000000000000000000000000000000000000000000000000000000000 DUP2 MSTORE PUSH1 0x4 ADD PUSH2 0x432 SWAP1 PUSH2 0xDAA JUMP JUMPDEST PUSH1 0x40 MLOAD DUP1 SWAP2 SUB SWAP1 REVERT JUMPDEST DUP2 PUSH1 0x5 PUSH1 0x0 CALLER PUSH20 0xFFFFFFFFFFFFFFFFFFFFFFFFFFFFFFFFFFFFFFFF AND PUSH20 0xFFFFFFFFFFFFFFFFFFFFFFFFFFFFFFFFFFFFFFFF AND DUP2 MSTORE PUSH1 0x20 ADD SWAP1 DUP2 MSTORE PUSH1 0x20 ADD PUSH1 0x0 KECCAK256 PUSH1 0x0 DUP6 PUSH20 0xFFFFFFFFFFFFFFFFFFFFFFFFFFFFFFFFFFFFFFFF AND PUSH20 0xFFFFFFFFFFFFFFFFFFFFFFFFFFFFFFFFFFFFFFFF AND DUP2 MSTORE PUSH1 0x20 ADD SWAP1 DUP2 MSTORE PUSH1 0x20 ADD PUSH1 0x0 KECCAK256 PUSH1 0x0 DUP3 DUP3 SLOAD PUSH2 0x4C7 SWAP2 SWAP1 PUSH2 0xDF9 JUMP JUMPDEST SWAP3 POP POP DUP2 SWAP1 SSTORE POP DUP3 PUSH20 0xFFFFFFFFFFFFFFFFFFFFFFFFFFFFFFFFFFFFFFFF AND CALLER PUSH20 0xFFFFFFFFFFFFFFFFFFFFFFFFFFFFFFFFFFFFFFFF AND PUSH32 0x8C5BE1E5EBEC7D5BD14F71427D1E84F3DD0314C0F7B2291E5B200AC8C7C3B925 DUP5 PUSH1 0x40 MLOAD PUSH2 0x52B SWAP2 SWAP1 PUSH2 0xA62 JUMP JUMPDEST PUSH1 0x40 MLOAD DUP1 SWAP2 SUB SWAP1 LOG3 PUSH1 0x1 SWAP1 POP SWAP3 SWAP2 POP POP JUMP JUMPDEST PUSH1 0x0 SELFBALANCE SWAP1 POP SWAP1 JUMP JUMPDEST PUSH1 0x3 SLOAD DUP2 JUMP JUMPDEST PUSH1 0x0 DUP2 PUSH1 0x5 PUSH1 0x0 DUP7 PUSH20 0xFFFFFFFFFFFFFFFFFFFFFFFFFFFFFFFFFFFFFFFF AND PUSH20 0xFFFFFFFFFFFFFFFFFFFFFFFFFFFFFFFFFFFFFFFF AND DUP2 MSTORE PUSH1 0x20 ADD SWAP1 DUP2 MSTORE PUSH1 0x20 ADD PUSH1 0x0 KECCAK256 PUSH1 0x0 CALLER PUSH20 0xFFFFFFFFFFFFFFFFFFFFFFFFFFFFFFFFFFFFFFFF AND PUSH20 0xFFFFFFFFFFFFFFFFFFFFFFFFFFFFFFFFFFFFFFFF AND DUP2 MSTORE PUSH1 0x20 ADD SWAP1 DUP2 MSTORE PUSH1 0x20 ADD PUSH1 0x0 KECCAK256 SLOAD LT ISZERO PUSH2 0x60C JUMPI PUSH1 0x40 MLOAD PUSH32 0x8C379A000000000000000000000000000000000000000000000000000000000 DUP2 MSTORE PUSH1 0x4 ADD PUSH2 0x603 SWAP1 PUSH2 0xE9B JUMP JUMPDEST PUSH1 0x40 MLOAD DUP1 SWAP2 SUB SWAP1 REVERT JUMPDEST DUP2 PUSH1 0x5 PUSH1 0x0 DUP7 PUSH20 0xFFFFFFFFFFFFFFFFFFFFFFFFFFFFFFFFFFFFFFFF AND PUSH20 0xFFFFFFFFFFFFFFFFFFFFFFFFFFFFFFFFFFFFFFFF AND DUP2 MSTORE PUSH1 0x20 ADD SWAP1 DUP2 MSTORE PUSH1 0x20 ADD PUSH1 0x0 KECCAK256 PUSH1 0x0 CALLER PUSH20 0xFFFFFFFFFFFFFFFFFFFFFFFFFFFFFFFFFFFFFFFF AND PUSH20 0xFFFFFFFFFFFFFFFFFFFFFFFFFFFFFFFFFFFFFFFF AND DUP2 MSTORE PUSH1 0x20 ADD SWAP1 DUP2 MSTORE PUSH1 0x20 ADD PUSH1 0x0 KECCAK256 PUSH1 0x0 DUP3 DUP3 SLOAD PUSH2 0x698 SWAP2 SWAP1 PUSH2 0xEBB JUMP JUMPDEST SWAP3 POP POP DUP2 SWAP1 SSTORE POP DUP2 PUSH1 0x4 PUSH1 0x0 DUP7 PUSH20 0xFFFFFFFFFFFFFFFFFFFFFFFFFFFFFFFFFFFFFFFF AND PUSH20 0xFFFFFFFFFFFFFFFFFFFFFFFFFFFFFFFFFFFFFFFF AND DUP2 MSTORE PUSH1 0x20 ADD SWAP1 DUP2 MSTORE PUSH1 0x20 ADD PUSH1 0x0 KECCAK256 PUSH1 0x0 DUP3 DUP3 SLOAD PUSH2 0x6EE SWAP2 SWAP1 PUSH2 0xEBB JUMP JUMPDEST SWAP3 POP POP DUP2 SWAP1 SSTORE POP DUP2 PUSH1 0x4 PUSH1 0x0 DUP6 PUSH20 0xFFFFFFFFFFFFFFFFFFFFFFFFFFFFFFFFFFFFFFFF AND PUSH20 0xFFFFFFFFFFFFFFFFFFFFFFFFFFFFFFFFFFFFFFFF AND DUP2 MSTORE PUSH1 0x20 ADD SWAP1 DUP2 MSTORE PUSH1 0x20 ADD PUSH1 0x0 KECCAK256 PUSH1 0x0 DUP3 DUP3 SLOAD PUSH2 0x744 SWAP2 SWAP1 PUSH2 0xDF9 JUMP JUMPDEST SWAP3 POP POP DUP2 SWAP1 SSTORE POP DUP3 PUSH20 0xFFFFFFFFFFFFFFFFFFFFFFFFFFFFFFFFFFFFFFFF AND DUP5 PUSH20 0xFFFFFFFFFFFFFFFFFFFFFFFFFFFFFFFFFFFFFFFF AND PUSH32 0xDDF252AD1BE2C89B69C2B068FC378DAA952BA7F163C4A11628F55A4DF523B3EF DUP5 PUSH1 0x40 MLOAD PUSH2 0x7A8 SWAP2 SWAP1 PUSH2 0xA62 JUMP JUMPDEST PUSH1 0x40 MLOAD DUP1 SWAP2 SUB SWAP1 LOG3 PUSH1 0x1 SWAP1 POP SWAP4 SWAP3 POP POP POP JUMP JUMPDEST PUSH1 0x2 SLOAD DUP2 JUMP JUMPDEST PUSH1 0x4 PUSH1 0x20 MSTORE DUP1 PUSH1 0x0 MSTORE PUSH1 0x40 PUSH1 0x0 KECCAK256 PUSH1 0x0 SWAP2 POP SWAP1 POP SLOAD DUP2 JUMP JUMPDEST PUSH1 0x1 DUP1 SLOAD PUSH2 0x7E6 SWAP1 PUSH2 0xD2C JUMP JUMPDEST DUP1 PUSH1 0x1F ADD PUSH1 0x20 DUP1 SWAP2 DIV MUL PUSH1 0x20 ADD PUSH1 0x40 MLOAD SWAP1 DUP2 ADD PUSH1 0x40 MSTORE DUP1 SWAP3 SWAP2 SWAP1 DUP2 DUP2 MSTORE PUSH1 0x20 ADD DUP3 DUP1 SLOAD PUSH2 0x812 SWAP1 PUSH2 0xD2C JUMP JUMPDEST DUP1 ISZERO PUSH2 0x85F JUMPI DUP1 PUSH1 0x1F LT PUSH2 0x834 JUMPI PUSH2 0x100 DUP1 DUP4 SLOAD DIV MUL DUP4 MSTORE SWAP2 PUSH1 0x20 ADD SWAP2 PUSH2 0x85F JUMP JUMPDEST DUP3 ADD SWAP2 SWAP1 PUSH1 0x0 MSTORE PUSH1 0x20 PUSH1 0x0 KECCAK256 SWAP1 JUMPDEST DUP2 SLOAD DUP2 MSTORE SWAP1 PUSH1 0x1 ADD SWAP1 PUSH1 0x20 ADD DUP1 DUP4 GT PUSH2 0x842 JUMPI DUP3 SWAP1 SUB PUSH1 0x1F AND DUP3 ADD SWAP2 JUMPDEST POP POP POP POP POP DUP2 JUMP JUMPDEST PUSH1 0x0 DUP2 PUSH1 0x4 PUSH1 0x0 CALLER PUSH20 0xFFFFFFFFFFFFFFFFFFFFFFFFFFFFFFFFFFFFFFFF AND PUSH20 0xFFFFFFFFFFFFFFFFFFFFFFFFFFFFFFFFFFFFFFFF AND DUP2 MSTORE PUSH1 0x20 ADD SWAP1 DUP2 MSTORE PUSH1 0x20 ADD PUSH1 0x0 KECCAK256 PUSH1 0x0 DUP3 DUP3 SLOAD PUSH2 0x8B8 SWAP2 SWAP1 PUSH2 0xEBB JUMP JUMPDEST SWAP3 POP POP DUP2 SWAP1 SSTORE POP DUP2 PUSH1 0x4 PUSH1 0x0 DUP6 PUSH20 0xFFFFFFFFFFFFFFFFFFFFFFFFFFFFFFFFFFFFFFFF AND PUSH20 0xFFFFFFFFFFFFFFFFFFFFFFFFFFFFFFFFFFFFFFFF AND DUP2 MSTORE PUSH1 0x20 ADD SWAP1 DUP2 MSTORE PUSH1 0x20 ADD PUSH1 0x0 KECCAK256 PUSH1 0x0 DUP3 DUP3 SLOAD PUSH2 0x90E SWAP2 SWAP1 PUSH2 0xDF9 JUMP JUMPDEST SWAP3 POP POP DUP2 SWAP1 SSTORE POP DUP3 PUSH20 0xFFFFFFFFFFFFFFFFFFFFFFFFFFFFFFFFFFFFFFFF AND CALLER PUSH20 0xFFFFFFFFFFFFFFFFFFFFFFFFFFFFFFFFFFFFFFFF AND PUSH32 0xDDF252AD1BE2C89B69C2B068FC378DAA952BA7F163C4A11628F55A4DF523B3EF DUP5 PUSH1 0x40 MLOAD PUSH2 0x972 SWAP2 SWAP1 PUSH2 0xA62 JUMP JUMPDEST PUSH1 0x40 MLOAD DUP1 SWAP2 SUB SWAP1 LOG3 PUSH1 0x1 SWAP1 POP SWAP3 SWAP2 POP POP JUMP JUMPDEST PUSH32 0xA8142743F8F70A4C26F3691CF4ED59718381FB2F18070EC52BE1F1022D855557 CALLVALUE PUSH1 0x40 MLOAD PUSH2 0x9B3 SWAP2 SWAP1 PUSH2 0xA62 JUMP JUMPDEST PUSH1 0x40 MLOAD DUP1 SWAP2 SUB SWAP1 LOG1 JUMP JUMPDEST PUSH1 0x0 DUP1 PUSH1 0x5 PUSH1 0x0 DUP6 PUSH20 0xFFFFFFFFFFFFFFFFFFFFFFFFFFFFFFFFFFFFFFFF AND PUSH20 0xFFFFFFFFFFFFFFFFFFFFFFFFFFFFFFFFFFFFFFFF AND DUP2 MSTORE PUSH1 0x20 ADD SWAP1 DUP2 MSTORE PUSH1 0x20 ADD PUSH1 0x0 KECCAK256 PUSH1 0x0 DUP5 PUSH20 0xFFFFFFFFFFFFFFFFFFFFFFFFFFFFFFFFFFFFFFFF AND PUSH20 0xFFFFFFFFFFFFFFFFFFFFFFFFFFFFFFFFFFFFFFFF AND DUP2 MSTORE PUSH1 0x20 ADD SWAP1 DUP2 MSTORE PUSH1 0x20 ADD PUSH1 0x0 KECCAK256 SLOAD SWAP1 POP DUP1 SWAP2 POP POP SWAP3 SWAP2 POP POP JUMP JUMPDEST PUSH1 0x0 DUP2 SWAP1 POP SWAP2 SWAP1 POP JUMP JUMPDEST PUSH2 0xA5C DUP2 PUSH2 0xA49 JUMP JUMPDEST DUP3 MSTORE POP POP JUMP JUMPDEST PUSH1 0x0 PUSH1 0x20 DUP3 ADD SWAP1 POP PUSH2 0xA77 PUSH1 0x0 DUP4 ADD DUP5 PUSH2 0xA53 JUMP JUMPDEST SWAP3 SWAP2 POP POP JUMP JUMPDEST PUSH1 0x0 DUP2 MLOAD SWAP1 POP SWAP2 SWAP1 POP JUMP JUMPDEST PUSH1 0x0 DUP3 DUP3 MSTORE PUSH1 0x20 DUP3 ADD SWAP1 POP SWAP3 SWAP2 POP POP JUMP JUMPDEST PUSH1 0x0 JUMPDEST DUP4 DUP2 LT ISZERO PUSH2 0xAB7 JUMPI DUP1 DUP3 ADD MLOAD DUP2 DUP5 ADD MSTORE PUSH1 0x20 DUP2 ADD SWAP1 POP PUSH2 0xA9C JUMP JUMPDEST DUP4 DUP2 GT ISZERO PUSH2 0xAC6 JUMPI PUSH1 0x0 DUP5 DUP5 ADD MSTORE JUMPDEST POP POP POP POP JUMP JUMPDEST PUSH1 0x0 PUSH1 0x1F NOT PUSH1 0x1F DUP4 ADD AND SWAP1 POP SWAP2 SWAP1 POP JUMP JUMPDEST PUSH1 0x0 PUSH2 0xAE8 DUP3 PUSH2 0xA7D JUMP JUMPDEST PUSH2 0xAF2 DUP2 DUP6 PUSH2 0xA88 JUMP JUMPDEST SWAP4 POP PUSH2 0xB02 DUP2 DUP6 PUSH1 0x20 DUP7 ADD PUSH2 0xA99 JUMP JUMPDEST PUSH2 0xB0B DUP2 PUSH2 0xACC JUMP JUMPDEST DUP5 ADD SWAP2 POP POP SWAP3 SWAP2 POP POP JUMP JUMPDEST PUSH1 0x0 PUSH1 0x20 DUP3 ADD SWAP1 POP DUP2 DUP2 SUB PUSH1 0x0 DUP4 ADD MSTORE PUSH2 0xB30 DUP2 DUP5 PUSH2 0xADD JUMP JUMPDEST SWAP1 POP SWAP3 SWAP2 POP POP JUMP JUMPDEST PUSH1 0x0 DUP1 REVERT JUMPDEST PUSH1 0x0 PUSH20 0xFFFFFFFFFFFFFFFFFFFFFFFFFFFFFFFFFFFFFFFF DUP3 AND SWAP1 POP SWAP2 SWAP1 POP JUMP JUMPDEST PUSH1 0x0 PUSH2 0xB68 DUP3 PUSH2 0xB3D JUMP JUMPDEST SWAP1 POP SWAP2 SWAP1 POP JUMP JUMPDEST PUSH2 0xB78 DUP2 PUSH2 0xB5D JUMP JUMPDEST DUP2 EQ PUSH2 0xB83 JUMPI PUSH1 0x0 DUP1 REVERT JUMPDEST POP JUMP JUMPDEST PUSH1 0x0 DUP2 CALLDATALOAD SWAP1 POP PUSH2 0xB95 DUP2 PUSH2 0xB6F JUMP JUMPDEST SWAP3 SWAP2 POP POP JUMP JUMPDEST PUSH2 0xBA4 DUP2 PUSH2 0xA49 JUMP JUMPDEST DUP2 EQ PUSH2 0xBAF JUMPI PUSH1 0x0 DUP1 REVERT JUMPDEST POP JUMP JUMPDEST PUSH1 0x0 DUP2 CALLDATALOAD SWAP1 POP PUSH2 0xBC1 DUP2 PUSH2 0xB9B JUMP JUMPDEST SWAP3 SWAP2 POP POP JUMP JUMPDEST PUSH1 0x0 DUP1 PUSH1 0x40 DUP4 DUP6 SUB SLT ISZERO PUSH2 0xBDE JUMPI PUSH2 0xBDD PUSH2 0xB38 JUMP JUMPDEST JUMPDEST PUSH1 0x0 PUSH2 0xBEC DUP6 DUP3 DUP7 ADD PUSH2 0xB86 JUMP JUMPDEST SWAP3 POP POP PUSH1 0x20 PUSH2 0xBFD DUP6 DUP3 DUP7 ADD PUSH2 0xBB2 JUMP JUMPDEST SWAP2 POP POP SWAP3 POP SWAP3 SWAP1 POP JUMP JUMPDEST PUSH1 0x0 DUP2 ISZERO ISZERO SWAP1 POP SWAP2 SWAP1 POP JUMP JUMPDEST PUSH2 0xC1C DUP2 PUSH2 0xC07 JUMP JUMPDEST DUP3 MSTORE POP POP JUMP JUMPDEST PUSH1 0x0 PUSH1 0x20 DUP3 ADD SWAP1 POP PUSH2 0xC37 PUSH1 0x0 DUP4 ADD DUP5 PUSH2 0xC13 JUMP JUMPDEST SWAP3 SWAP2 POP POP JUMP JUMPDEST PUSH1 0x0 DUP1 PUSH1 0x0 PUSH1 0x60 DUP5 DUP7 SUB SLT ISZERO PUSH2 0xC56 JUMPI PUSH2 0xC55 PUSH2 0xB38 JUMP JUMPDEST JUMPDEST PUSH1 0x0 PUSH2 0xC64 DUP7 DUP3 DUP8 ADD PUSH2 0xB86 JUMP JUMPDEST SWAP4 POP POP PUSH1 0x20 PUSH2 0xC75 DUP7 DUP3 DUP8 ADD PUSH2 0xB86 JUMP JUMPDEST SWAP3 POP POP PUSH1 0x40 PUSH2 0xC86 DUP7 DUP3 DUP8 ADD PUSH2 0xBB2 JUMP JUMPDEST SWAP2 POP POP SWAP3 POP SWAP3 POP SWAP3 JUMP JUMPDEST PUSH1 0x0 PUSH1 0x20 DUP3 DUP5 SUB SLT ISZERO PUSH2 0xCA6 JUMPI PUSH2 0xCA5 PUSH2 0xB38 JUMP JUMPDEST JUMPDEST PUSH1 0x0 PUSH2 0xCB4 DUP5 DUP3 DUP6 ADD PUSH2 0xB86 JUMP JUMPDEST SWAP2 POP POP SWAP3 SWAP2 POP POP JUMP JUMPDEST PUSH1 0x0 DUP1 PUSH1 0x40 DUP4 DUP6 SUB SLT ISZERO PUSH2 0xCD4 JUMPI PUSH2 0xCD3 PUSH2 0xB38 JUMP JUMPDEST JUMPDEST PUSH1 0x0 PUSH2 0xCE2 DUP6 DUP3 DUP7 ADD PUSH2 0xB86 JUMP JUMPDEST SWAP3 POP POP PUSH1 0x20 PUSH2 0xCF3 DUP6 DUP3 DUP7 ADD PUSH2 0xB86 JUMP JUMPDEST SWAP2 POP POP SWAP3 POP SWAP3 SWAP1 POP JUMP JUMPDEST PUSH32 0x4E487B7100000000000000000000000000000000000000000000000000000000 PUSH1 0x0 MSTORE PUSH1 0x22 PUSH1 0x4 MSTORE PUSH1 0x24 PUSH1 0x0 REVERT JUMPDEST PUSH1 0x0 PUSH1 0x2 DUP3 DIV SWAP1 POP PUSH1 0x1 DUP3 AND DUP1 PUSH2 0xD44 JUMPI PUSH1 0x7F DUP3 AND SWAP2 POP JUMPDEST PUSH1 0x20 DUP3 LT DUP2 EQ ISZERO PUSH2 0xD58 JUMPI PUSH2 0xD57 PUSH2 0xCFD JUMP JUMPDEST JUMPDEST POP SWAP2 SWAP1 POP JUMP JUMPDEST PUSH32 0x596F7520646F6E2774206861766520656E6F7567682062616C616E6365000000 PUSH1 0x0 DUP3 ADD MSTORE POP JUMP JUMPDEST PUSH1 0x0 PUSH2 0xD94 PUSH1 0x1D DUP4 PUSH2 0xA88 JUMP JUMPDEST SWAP2 POP PUSH2 0xD9F DUP3 PUSH2 0xD5E JUMP JUMPDEST PUSH1 0x20 DUP3 ADD SWAP1 POP SWAP2 SWAP1 POP JUMP JUMPDEST PUSH1 0x0 PUSH1 0x20 DUP3 ADD SWAP1 POP DUP2 DUP2 SUB PUSH1 0x0 DUP4 ADD MSTORE PUSH2 0xDC3 DUP2 PUSH2 0xD87 JUMP JUMPDEST SWAP1 POP SWAP2 SWAP1 POP JUMP JUMPDEST PUSH32 0x4E487B7100000000000000000000000000000000000000000000000000000000 PUSH1 0x0 MSTORE PUSH1 0x11 PUSH1 0x4 MSTORE PUSH1 0x24 PUSH1 0x0 REVERT JUMPDEST PUSH1 0x0 PUSH2 0xE04 DUP3 PUSH2 0xA49 JUMP JUMPDEST SWAP2 POP PUSH2 0xE0F DUP4 PUSH2 0xA49 JUMP JUMPDEST SWAP3 POP DUP3 PUSH32 0xFFFFFFFFFFFFFFFFFFFFFFFFFFFFFFFFFFFFFFFFFFFFFFFFFFFFFFFFFFFFFFFF SUB DUP3 GT ISZERO PUSH2 0xE44 JUMPI PUSH2 0xE43 PUSH2 0xDCA JUMP JUMPDEST JUMPDEST DUP3 DUP3 ADD SWAP1 POP SWAP3 SWAP2 POP POP JUMP JUMPDEST PUSH32 0x416D6F756E74206E6F7420617070726F76656400000000000000000000000000 PUSH1 0x0 DUP3 ADD MSTORE POP JUMP JUMPDEST PUSH1 0x0 PUSH2 0xE85 PUSH1 0x13 DUP4 PUSH2 0xA88 JUMP JUMPDEST SWAP2 POP PUSH2 0xE90 DUP3 PUSH2 0xE4F JUMP JUMPDEST PUSH1 0x20 DUP3 ADD SWAP1 POP SWAP2 SWAP1 POP JUMP JUMPDEST PUSH1 0x0 PUSH1 0x20 DUP3 ADD SWAP1 POP DUP2 DUP2 SUB PUSH1 0x0 DUP4 ADD MSTORE PUSH2 0xEB4 DUP2 PUSH2 0xE78 JUMP JUMPDEST SWAP1 POP SWAP2 SWAP1 POP JUMP JUMPDEST PUSH1 0x0 PUSH2 0xEC6 DUP3 PUSH2 0xA49 JUMP JUMPDEST SWAP2 POP PUSH2 0xED1 DUP4 PUSH2 0xA49 JUMP JUMPDEST SWAP3 POP DUP3 DUP3 LT ISZERO PUSH2 0xEE4 JUMPI PUSH2 0xEE3 PUSH2 0xDCA JUMP JUMPDEST JUMPDEST DUP3 DUP3 SUB SWAP1 POP SWAP3 SWAP2 POP POP JUMP INVALID LOG2 PUSH5 0x6970667358 0x22 SLT KECCAK256 MSTORE8 PUSH21 0x904F4E6512C59420122EEC08B71534EC14ACB9C347 SWAP11 0x4E SWAP9 GASLIMIT CODECOPY PUSH24 0xF6955E64736F6C634300080C003300000000000000000000 "
				},
				"gasEstimates": {
					"creation": {
						"codeDepositCost": "775400",
						"executionCost": "infinite",
						"totalCost": "infinite"
					},
					"external": {
						"": "1386",
						"allowance(address,address)": "infinite",
						"approve(address,uint256)": "infinite",
						"balanceOf(address)": "2836",
						"decimals()": "2429",
						"deposit()": "1398",
						"getBalance()": "384",
						"name()": "infinite",
						"symbol()": "infinite",
						"totalSupply()": "2496",
						"transfer(address,uint256)": "infinite",
						"transferFrom(address,address,uint256)": "infinite"
					}
				},
				"methodIdentifiers": {
					"allowance(address,address)": "dd62ed3e",
					"approve(address,uint256)": "095ea7b3",
					"balanceOf(address)": "70a08231",
					"decimals()": "313ce567",
					"deposit()": "d0e30db0",
					"getBalance()": "12065fe0",
					"name()": "06fdde03",
					"symbol()": "95d89b41",
					"totalSupply()": "18160ddd",
					"transfer(address,uint256)": "a9059cbb",
					"transferFrom(address,address,uint256)": "23b872dd"
				}
			},
			"userdoc": {
				"kind": "user",
				"methods": {},
				"version": 1
			}
		}
	}
}